:020000040020DA
:10000000000C0020910220000D0320008D02200032
:100010008D0220008D0220008D02200000000000D3
:100020000000000000000000000000008D02200021
:100030008D022000000000008D022000D50A200063
:10004000B50F2000E50F2000191020004D102000F2
:1000500000000000510D20008D0220008D022000C4
:100060008D022000000000000000000000000000E1
:1000700000000000000000008D02200000000000D1
:1000800000000000000000008D0220008D02200012
:100090008D0220008D0220008D0220008D022000A4
:1000A0008D0220008D0220008D0220008D02200094
:1000B0008D0220008D0220008D0220008D02200084
:1000C0008D0220008D0220008D0220008D02200074
:1000D0008D02200000000000000000000000000071
:1000E0000000000000000000000000000000000010
:1000F0000000000000000000811720009117200080
:1001000000000000000000000000000000000000EF
:1001100000000000000000000000000000000000DF
:1001200000000000000000000000000000000000CF
:1001300000000000000000000000000000000000BF
:1001400000000000000000000000000000000000AF
:10015000000000000000000000000000000000009F
:10016000000000000000000000000000000000008F
:10017000000000000000000000000000000000007F
:10018000000000000000000000000000000000006F
:10019000000000000000000000000000000000005F
:1001A000000000000000000000000000000000004F
:1001B000000000000000000000000000000000003F
:1001C000000000000000000000000000000000002F
:1001D000000000000000000000000000000000001F
:1001E000000000000000000000000000000000000F
:1001F00000000000000000000000000000000000FF
:1002000000000000000000000000000000000000EE
:1002100000000000000000000000000000000000DE
:1002200000000000000000000000000000000000CE
:1002300000000000000000000000000000000000BE
:1002400000000000000000000000000000000000AE
:10025000000000000000000000000000000000009E
:10026000000000000000000000000000000000008E
:100270008D0220004D162000691620008D022000FE
:100280008D022000F90B20008D022000FEE700BF48
:10029000194A1A4B42F2B401FF20C4F20D019A42EE
:1002A00070B508601BD2DD1C141D2E1B144926F0EE
:1002B0000305281D0E68042383421660C5F38005DC
:1002C0000DD025B14E6808238342266007D05E58C2
:1002D0001C1D9E500D59083383421551F7D1094812
:1002E00009494FF000028842B8BF40F8042BFFF6DE
:1002F000FAAF00F03DF9FEE700000020CC0000203E
:10030000A4562000000400205020002008B5FFF76C
:10031000BFFF00BF30B5832985B0044626D02388AF
:100320007BB9394D39488121394A2B8003F040FA95
:100330003848802102F004FA7D212180012005B097
:1003400030BD7D2B03D0002020800320F7E78829D3
:1003500027D0314D2B788B4210D0304A107888420C
:1003600037D0294D2B88581C2880E1E72748039176
:10037000029203F031FA029A0399D0E728498A429F
:1003800030D0284DAA4228D0274B9A4225D0274862
:10039000824230D026498A42E3D100F0B5FD1A4DA1
:1003A000E0E7194D022000F081F82988214801F08A
:1003B00063FB8021174802F0C3F900F001FC002222
:1003C00000F5804100921C4B01221C4802F06EFB9C
:1003D000C8E7082000F088F8C3E7012000F084F89F
:1003E000094DBFE70221084802F08AFE074803F0E2
:1003F000F5F9054DB6E700F06DFD0F2000F056F859
:10040000014D00F005FDADE7340C00201C0C002070
:10041000545420000C0C0020082000201220002042
:10042000E0542000085520001855200028552000D1
:10043000F05420000C54200069042000000C00201F
:1004400010B50A2000F050F802F0FCFD044602F05E
:10045000D1FD028845F22040C0F220002146BDE8CF
:10046000104001F009BB00BF022000F029B800BF16
:1004700040F6374240F63643C2F20002C2F20003B1
:1004800010781978484000F03BB800BF08B500F07C
:100490002DF840F6374240F636430021C2F2000202
:1004A000C2F200031170197008BD00BF40F6364358
:1004B000C2F200031A7810431870FFF7D9BF00BFCB
:1004C00040F63643C2F200031A7822EA00001870A0
:1004D000FFF7CEBF40F63743C2F200031A78504010
:1004E0001870FFF7C5BF00BFFFF7F4BF4FF43443E8
:1004F000C4F20D031A6842F00F001860704700BF85
:100500004BF23C03C4F20D0318607047F0B50027AE
:1005100083B005463E463C462846FFF7C7FF019498
:10052000019B9E4206DD00BF0198411C0191019A8A
:100530009642F8DC2846FFF7C3FF0194019BC6F5FD
:10054000C876B34206DA00BF0198411C0191019AB6
:10055000B242F8DB0137B7F5487F06D0B7F5C87F60
:10056000CCBFC7F548763E46D6E703B0F0BD00BF26
:1005700010B500F051FC00F08BFD00F0AFFC00F076
:1005800025FA01F0D9F902F08FFA00F079FDFFF7B2
:100590007DFF0220FFF7BAFF02F0A2F900F01EFC77
:1005A00000F00CFA00F04EFB2E4800F0BDFB02F00C
:1005B00035FB00F08BFC0420FFF7A8FF2A4801F070
:1005C000FFF92A4801F0FCF9294801F055FA294BB6
:1005D000294C186801F0F4F9284801F04DFA284830
:1005E000006801F0EDF9274801F046FA264908684D
:1005F00001F0E6F9002002F0B9FB01F04FF82348C2
:10060000002102F025FA01F09FFF0221204601F0AF
:1006100005FA1F4801F030FA21781E4801F02CFA43
:1006200061781D4801F028FA02F024FC45F24940A7
:1006300000F0ECFF0021194802F00AFA01F0D4FFA3
:10064000174801F02DFF00F0D1FB0820FFF75EFFF7
:1006500000F0D4FB02F062F910F0FF0FF8D101F0C6
:10066000E9F8F5E7D12B20005C54200078542000F5
:100670009054200068562000142000209854200038
:1006800010562000A05420003456200064000020A2
:10069000A8542000C8542000D0542000100000208E
:1006A000045420002DE9F04106888046772E2FD093
:1006B0007E2E26D006BB02F00BF9304D304C31496E
:1006C0002A6808702660002A45D02F4F31467E5494
:1006D00092680021802090472368591C55F82120FA
:1006E0002160002AF3D1C8B2284B18707723A8F8EC
:1006F00000300120BDE8F081002303800320BDE825
:10070000F081204802788A4217D00120BDE8F081AC
:100710001E4E1B4D32781E4C0023934223602B60EB
:1007200007DA194FF856002817DB013393422B6084
:10073000F7DB21680029EFD1D8E7114D124F134E96
:10074000134C2B682168F85C013100F07F0032788F
:10075000F8542160E9E71046C6E70A4A00201178FC
:10076000064A52F8232002F043F90028E9D17E21FD
:10077000A8F800100120BDE8F08100BF2000002093
:10078000400C0020082000200C200020380C002005
:100790003C0C002010B4154B1C7824B3144A4FF0C5
:1007A00000031168884208D0E10718D40123A3424E
:1007B00003DA52F8041F884211D10E4A0E48D15C68
:1007C00061F07F01D15410BC02F062B952F8041FED
:1007D0008842F2D052F8041F01338842EDD0013331
:1007E000A342F3DBE9E72346E7E700BF380C00202C
:1007F000200000200C2000201000002030B440F425
:1008000084621468CB431C40146040F48062156815
:1008100042F004041D401560256840F481621D40CB
:100820002560156842F004042B401360236840F4EF
:1008300082600B43236002681143016030BC704743
:100840004FF4304008B58021C4F20D00FFF7D6FF09
:1008500007210422022000F02FFC022000F00CFBF4
:1008600040F64510C0F220000221072200F054FBA0
:10087000012008BD4FF4304008B54021C4F20D00FE
:10088000FFF7BCFF06210422022000F015FC022025
:1008900000F0F2FA40F64510C0F2200002210622D4
:1008A00000F03AFB012008BD4FF4304008B520218C
:1008B000C4F20D00FFF7A2FF05210422022000F080
:1008C000FBFB022000F0D8FA40F64510C0F22000F1
:1008D0000221052200F020FB012008BD4FF430402A
:1008E00008B51021C4F20D00FFF788FF04210A4665
:1008F000022000F0E1FB022000F0BEFA40F64510B5
:10090000C0F220000221042200F006FB012008BDF5
:100910004FF4104008B50821C4F20D00FFF76EFF38
:1009200003210422002000F0C7FB002000F0A4FAFD
:1009300040F64510C0F220000021032200F0ECFA3E
:10094000012008BD38B5044616480D4602F0DEF811
:1009500000B938BD1348102102F0D0F844B1022C80
:10096000F7D1043D032DF4D8DFE805F016110C078C
:100970000D48BDE83840FFF70DBF0C48BDE83840D2
:10098000FFF708BF0A48BDE83840FFF703BF094832
:10099000BDE83840FFF7FEBE0748BDE83840FFF726
:1009A000F9BE00BF440C0020E05420002855200070
:1009B000F0542000185520000855200040F644400F
:1009C000C2F20000002102F099B800BF70B440F6F6
:1009D00050424EF214014EF647000025C2F20002CA
:1009E000CEF20001C0F201004EF210031560CEF20B
:1009F000000308601C6842F2080244F005061E600D
:100A00001968C4F20D0241F00200186016680C2447
:100A1000284646F001061660C4F203000421C4F221
:100A2000030404222560C4F203010260382301207C
:100A30000860C4F203030F21196070BC704700BF47
:100A400040F65043C2F20003186870472822C4F2EF
:100A500003020C231060C4F203031968184641F026
:100A600001021A600368DB07FCD4704710B44EF231
:100A70001003CEF200031968134A21F001041C6030
:100A80001368124903EBD01414600C68104B04195E
:100A90000C601978081AC1B21970187810B1197859
:100AA000802906D91068411C11601A7882F08000F4
:100AB00018704EF21003CEF20003196841F00102E3
:100AC0001A6010BC704700BF4C0C0020500C002076
:100AD0003800002008B50B4B1A68501C186001F054
:100AE00039FE60B9084B19784A1ED0B2187028B97F
:100AF000064A1168481C106080221A7008BD01F077
:100B000097FDEFE7500C0020380000204C0C00202F
:100B1000704700BF45F25002F8B5C4F20D0204461A
:100B20001368DB07FCD500F0D5F945F2480645F21D
:100B3000400145F24400C4F20D01C4F20D00C4F2BC
:100B40000D060F680568326845F24C031104C4F2C3
:100B50000D03186841EA05263E4346EA0067E51B97
:100B6000062DD8BFFC1D45F24C0045F2480145F268
:100B7000440245F24003C4F20D01C4F20D02C4F276
:100B80000D034FEA146EC4F20D00C4F30747C4F31B
:100B90000726E5B2C0F800E00F6016601D6000F0A7
:100BA00095F9034991200C60BDE8F84000F064B964
:100BB000540C002040F65443C2F2000318687047FA
:100BC00045F2400145F2440245F24803C4F20D02E9
:100BD000C4F20D03C4F20D01096810681A6845F2E9
:100BE0004C031204C4F20D0342EA002218681143B8
:100BF00041EA0060704700BF08B500F0F1FD40F623
:100C00005443C2F20003002291201A6000F050F910
:100C1000912000F03FF9BDE8084001F05BBF00BF44
:100C200042F22803C4F20D031868C30707D54CF23B
:100C30001801C4F200010A68C2F3C0107047012015
:100C4000704700BF40F6214070B5C0F2200000F0B0
:100C500063FE42F22803C4F20D03196842F22C022B
:100C600041F001001860C4F20D02146842F2300530
:100C700044F001061660C4F20D052B684CF6C872EC
:100C80004FF48240002443F00101C4F20002C4F298
:100C90000D0029601460012122460460204600F006
:100CA00015FA20460121082200F006FA49F22045F3
:100CB000C4F20D052E684CF2380246F002032B6098
:100CC0002868C4F2000240F0010450212C60116039
:100CD00016684CF2340546F4D0661660C4F200057E
:100CE00002224CF230032A60C4F200034FF4407237
:100CF0004CF224041A60C4F2000408224CF22800CA
:100D00002260C4F200002C224CF22C010260C4F2DA
:100D10000001702008601968052041F001021A6086
:100D2000BDE8704000F0A8B840F65843C2F2000396
:100D3000186070474CF21802C4F20002136899065A
:100D4000FCD44FF44041C4F200010860704700BF7A
:100D500070B54CF24003C4F2000318684CF2440230
:100D60004FF6BF71C4F20002116010F0500116D0AE
:100D70004CF218044FF44045174EC4F20004C4F27C
:100D800000052368D80607D4316831B12868C0B29D
:100D900088472368D806F7D570BD2B68F1E710F4B3
:100DA000D06F17D04CF23003C4F200034FF44074FC
:100DB0004CF204001C60C4F200004CF22C02FF2430
:100DC0000460C4F20002106811601060196841F0FC
:100DD00001021A6070BD00BF580C00204FF4A04300
:100DE000C4F20D0300221A60704700BF4FF4A04305
:100DF000C4F20D0308221A60704700BF4FF4A043ED
:100E0000C4F20D03A02250201A601860704700BF82
:100E100008B500F05FF8FEE740F668404FF4614C1B
:100E2000F0B4C2F2000040F65C414EF2801740F68A
:100E300060424FF4624640F664434EF280254EF61F
:100E40000854CEF2000CC0F800C0C2F20001CEF28D
:100E50000007C2F20002CEF20006C2F20003CEF298
:100E60000005CEF200044FF400100F6016601D6004
:100E70002060F0BC704700BF00F01F03012202FA9F
:100E800003F240F66841C2F200010B68400943F8E2
:100E90002020704700F01F03012202FA03F240F6FF
:100EA0005C41C2F200010B68400943F82020704702
:100EB00000F01F03012202FA03F240F66441C2F27D
:100EC00000010B68400943F820207047EFF31080C1
:100ED00062B67047EFF3108072B670474FF400535C
:100EE00040F20112C4F20D03C0F2021242F20401F8
:100EF0001A60C4F20D0100230868C0F20113034018
:100F0000B3F1807FF7D1704742F27403C4F20D034E
:100F100008221A60704700BF40F66C43C2F200031B
:100F200002EBC10243F82200704700BF204B70B5AE
:100F3000CA000D4603EB4116C107044605D553F818
:100F4000223013B1284600219847A20704D57268C1
:100F500012B1284601219047630704D5B36813B145
:100F6000284602219847200704D5F26812B1284686
:100F700003219047E10604D5336913B128460421C3
:100F80009847A20604D5726912B1284605219047F8
:100F9000630604D5B36913B1284606219847E409CE
:100FA00004D0F46914B128460721A04770BD00BFE2
:100FB0006C0C002008B500F013FC49F21843C4F291
:100FC0000D0318680021C0B2FFF7B0FF49F21C41C1
:100FD00049F21873FF22C4F20D01C4F20D030A6036
:100FE0001A6008BD08B500F0FBFB4AF21843C4F2D2
:100FF0000D0318680121C0B2FFF798FF4AF21C42A6
:101000004AF21873C4F20D02C4F20D03FF214FF42B
:101010007F401160186008BD08B500F0E1FB4BF29D
:101020001843C4F20D0318680221C0B2FFF77EFF17
:101030004BF21C424BF21873C4F20D02C4F20D03C2
:10104000FF214FF47F001160186008BD08B500F063
:10105000C7FB4CF21843C4F20D0318680321C0B259
:10106000FFF764FF4CF21C424CF21873C4F20D02FD
:10107000C4F20D03FF214FF07F401160186008BDDE
:1010800040F66C40C2F200000021802204F024B936
:1010900040F6F0424FF4814040F6EC434FF480417B
:1010A000C2F20002C4F20D00C2F20003C4F20D014C
:1010B00010601960704700BF40F6F043C2F20003B1
:1010C0001B6801EBC00143F82120704740F6EC4358
:1010D000C2F200031B6801EBC00143F821207047F6
:1010E000094A92F90030002B0CDB48F63800C4F2B4
:1010F0000800ED21E323016001600360107860F0D7
:101100007F01117001207047F40C002048F24C62FE
:10111000C4F2080213689B07FCD448F63800C4F2F6
:101120000800ED2148F22C620160C4F2080201605F
:1011300013680BB1EF210160034B01201A7802F014
:101140007F011970704700BFF40C002038B548F2D9
:101150004863C4F208031868174C8306217811D13C
:1011600041F010010D0621700CD448F63801C4F28C
:101170000801ED22E3250A600A600D60237843F040
:101180008001217048F26462C4F208021068C0074E
:10119000FCD548F24C65C4F208052A6801F010033A
:1011A000D8B2C2F3001520B121F010012170FFF771
:1011B000ADFF284638BD00BFF40C002048F24C6358
:1011C000C4F20803186800F02201B1F12002534272
:1011D00053EB0200704700BF48F24C63C4F20803AF
:1011E000186800F04000704748F24C6270B5C4F2D5
:1011F00008020C4613689907FCD41B4D95F90010A2
:1012000000290CDB48F63806C4F20806ED22E32379
:10121000326032603360297861F07F062E7048F6C4
:10122000380348F62802C4F20802C4F20803EE2587
:10123000411EA61C1D6002201D600919166000F0E9
:101240004BFA601E4CF20203CCF20103040144EAA3
:101250000301022000F052FA022000F059FA0220A5
:1012600000F072FA002070BDF40C002038B548F28E
:101270004C63C4F208031A6812F0400326D048F603
:101280002802C4F208021368DCB21B0615D4042C31
:1012900013D9023C8C4210DCE4B2032C18D1116843
:1012A0000170156845701268827048F62802C4F211
:1012B000080213681568290625D448F63803C4F2D5
:1012C0000803ED221A6000201A6038BD184638BDA8
:1012D0000319591E032000F007FA601E4CF20201A8
:1012E0000501C0F601410320294300F007FA03205D
:1012F00000F00EFA032000F027FA032000F032FA83
:101300000028FAD1D1E7493B58B281B2042001F05C
:101310004BFF032005F07F0101F046FF48F24C61CE
:10132000C4F208010A68520609D50B68180608D4E9
:1013300048F63800C4F20800ED2101600160204643
:1013400038BD024801F0A4FBF9E700BF3C000020D3
:1013500038B5364D95F90030002B1BDBFFF730FC1C
:101360002B7819060AD448F63802C4F20802ED2197
:10137000E324116043F08003116014604FF6F672AD
:1013800043F01001CFF6FF722970141AFFF718FC12
:10139000E042FBD4FFF7DAFE10B90224204638BD44
:1013A00048F24C64C4F2080420688206F5D448F67A
:1013B0003803C4F20803E9221A6021688B070FD4AE
:1013C0000620FFF743FB2068810709D40620FFF7BA
:1013D0003DFB23689A0703D40620FFF737FB2368F9
:1013E00048F24C61C4F208010C68A00714D448F616
:1013F0003800C4F20800EE2303600124036029785A
:1014000001F01002D0B20028C8D021F01003074923
:101410000B70FFF77BFEC1E70A6812F00204EED002
:101420000A6812F00204F7D1E9E700BFF40C0020CB
:1014300010B50C46FFF7D8FE2046BDE81040FFF778
:1014400087BF00BFA0F10B030F2B10B504461ED8B9
:10145000FFF75CFE04EB840148F23C602C39C4F2D7
:1014600008000C4A016092F90030002B0CDB48F6B2
:101470003800C4F20800ED21E3230160016003603D
:10148000107860F07F011170E2B250B210BDFF22FF
:10149000FBE700BFF40C0020F8B53F4C217811F0B9
:1014A000010601D00020F8BD42F2A80C42F2AC0EB9
:1014B00042F2B007C4F20D0E0125C4F20D0CC4F2C5
:1014C0000D0748F25860CCF80050C4F20800CEF87E
:1014D000005048F2E8713D60F8270760C4F2080147
:1014E000092048F2C8620860C4F2080215211160A0
:1014F0000B27042248F224631760C4F20803402734
:101500001F60186807F5064240F0200048F2086C9A
:1015100048F25061C4F2080C1860C4F20802C4F228
:1015200008017F27D523CCF8006019200F601360D5
:101530001368FFF787FF48F28C61C4F208010A685C
:101540008D2042F004030B60FFF796FC48F2946193
:10155000C4F208010F608E20FFF78EFC022000F01D
:10156000E5F848F62801C4F20801022000F0BCF8B2
:10157000032000F0DBF848F628010320C4F208013C
:1015800000F0AAF80548314601F062FA22782846B0
:101590002A432270F8BD00BFF40C00203C0000205C
:1015A00010B50388044623B940F29E202080012014
:1015B00010BD40F29E22934203D0002020800320E1
:1015C00010BD822901D0012010BD01F07BFD01F08A
:1015D00011FD8021FFF74AFE002805DD80B201F0F1
:1015E00003FD08490B6998470748027802F040015B
:1015F000CBB2002BD8D000220270FFF787FDFFF797
:101600004BFFD1E734562000F40C002010B448F210
:10161000C85148F2CC52C4B2C4F20801000AC4F264
:10162000080242F214030C60C2F200031060597801
:1016300048F2D052C4F208021160187848F2D4532C
:10164000C4F20803186010BC704700BF40F23C00B1
:1016500008B5C2F2000001F01BFA48F63403C4F2E8
:10166000080300221A6008BD48F62C03C4F20803E0
:101670001868042804D007490A7842F040030B7028
:1016800048F62C00C4F2080000210160024801F075
:10169000FFB900BFF40C00203C00002010B541F25F
:1016A0000004C2F2000400214022204603F014FE90
:1016B0004FF204024FF20803C4F20F02C4F20F0308
:1016C000012111602E201C60FFF7D6FB2F20BDE802
:1016D0001040FFF7D1BB00BF032802D8014B000127
:1016E0001950704700100020032803D8024B03EB69
:1016F00000104160704700BF00100020032803D88D
:10170000024B03EB00108160704700BF0010002007
:10171000032809D8012303FA00F04FF22801C4F28C
:101720000F010A6810430860704700BF032809D8FA
:10173000012303FA00F04FF22001C4F20F010A68FE
:1017400010430860704700BF032809D8012303FA3B
:1017500000F04FF21401C4F20F010A681043086050
:10176000704700BF032806D8044B03EB00108168C4
:1017700001F0070070470020704700BF00100020F4
:101780004FF20453C4F20F034FF0FF321A60704758
:101790004FF24C03C4F20F0301221A60704700BFDE
:1017A00042F20402C4F20D021368D902FCD44FF4D1
:1017B0000050C4F20D00016842F2040221F48033AB
:1017C0000360C4F20D021068C303FCD44FF400514F
:1017D000C4F20D010A6842F400330B60704700BF89
:1017E00008B542F25803C4F20D03186882071DD0F1
:1017F00042F20402C4F20D0211684B01FCD442F221
:101800000402C4F20D0213685801FCD5FFF7D8F9A1
:1018100007490A68801A000AFFF728F9FFF7C0FF96
:1018200042F25803C4F20D030021196008BD00BF45
:101830000C14002038B548F24863C4F20803186855
:1018400083060BD1314C216829B1884730B16268D9
:101850000AB1904710B12E4C23780BB930BF38BD78
:10186000FFF7A8F90546FFF7ABF9281A0928F5D9BB
:10187000002DF3D04FF40053C4F20D03196842F267
:10188000040221F400301860C4F20D021368D8027B
:10189000FCD44FF40050C4F20D00016842F204027F
:1018A00041F480330360C4F20D021068C103FCD51B
:1018B000FFF786F9291A09291ED9632902D9237845
:1018C000022B1DD042F25800C4F20D00012202602A
:1018D000FFF776F90F4B186001F07EF818B9FFF7A3
:1018E00069F90028BAD1FFF75BFF42F25800C4F251
:1018F0000D000022026038BDBDE83840FFF750BF40
:1019000042F25801C4F20D010B60E1E7041400201B
:10191000001400200C140020064A1168814204D0F3
:1019200029B15368834200D003B17047012142F8C6
:101930002100FAE70414002042F25803C4F20D0318
:1019400000214EF610521960CEF20002106841F2EA
:10195000004340F004011160C2F2000301221A703A
:10196000704700BF70B505460E4610B3007820B32F
:1019700009B30024EA0714D5FFF7DCF901346B1C26
:101980000DD015F8013F18464BB1B44207D0FFF710
:10199000D1F915F8010F013408B1B442ECD1204659
:1019A00070BDFFF7C7F915F8010F01240028F4D125
:1019B000F5E70446F3E70C46F1E70446EFE700BF1E
:1019C00070B5044614F8013BC043002500F0010641
:1019D000F3B11846FFF7AEF90125CCB196B114F872
:1019E000010BA8B1FFF7A6F902255CB910E0FFF7DB
:1019F000A1F9627801351046741C4AB1FFF79AF9D3
:101A000001352CB1264616F8011B08460029EED1F7
:101A10000A20FFF78FF9284670BD00BF30B401B32C
:101A200001F52013273313F801292725C0F22805D3
:101A30000139AB42027001F0010212D02AB113F851
:101A40000119AB4200F8011F0BD01A4612F80149E8
:101A5000411C447013F8010C531E4870481CAB42E3
:101A6000F3D130BC704700BF08B51AB10846114623
:101A7000FFF778FF002008BD0FB400B583B004ABBA
:101A800053F8041B40F24C001A46C2F200000193C6
:101A900000F042F803B05DF804EB04B0704700BFFB
:101AA000102970B50D46044629D9A1F11106036825
:101AB000184940681022C6F300169847002828D11C
:101AC000103D102D1BD986B1236860681149102282
:101AD000984798B9103D102D07D810E0236860682A
:101AE0009847203DA0B9102D09D90A491022236832
:101AF00060689847074910220028EFD070BD0DB9E3
:101B0000284670BD2368606802492A46984770BD20
:101B100070BD70BDB85520002DE9F04F002491B084
:101B2000834607928A4601949AF80030002B00F011
:101B30005E81252B08BF55461DD0544602E025285E
:101B400004D02C466078651C0028F8D155450FD08C
:101B5000CAEB0506DBF80030DBF8040051463246DC
:101B60009847002840F057826078019CA41901949E
:101B7000002800F03C816B78002B00F038810135A3
:101B80004FF00009A3F12002AA46102A1BD8DFE873
:101B900002F0171A1A141A1A1A1A1A1A1A111A0E05
:101BA0001A1A090049F0100915F8013FEAE749F04F
:101BB0000109F9E749F00609F6E749F00809F3E7F2
:101BC00049F00209F0E7A3F13101082900F213817D
:101BD0002F2B40F21281392B00F20F8101354FF08B
:101BE000000801E0392B0AD808EB880803EB48010C
:101BF000AA4615F8013BA1F130082F2BF2D82E2B65
:101C000000F000814FF0FF356C2B00F01881682B3D
:101C100000F05781782B7CD8DFE813F0E9007B00D7
:101C20007B007B007B007B007B007B007B007B00DC
:101C30007B007B007B007B007B007B007B007B00CC
:101C40007B007B007B007B007B007B007B007B00BC
:101C50007B007B007B007B007B007B007B007B00AC
:101C60007B007B007B004F027B007B007B007B00C6
:101C70007B007B007B007B007B007B007B007B008C
:101C80007B007B007B007B007B007B007B007B007C
:101C90007B007B007B007B007B007B007B004C0299
:101CA0007B007B007B004902460243027B007B00F5
:101CB0007B007B007B007B007B007B007B007B004C
:101CC0007B007B007B007B007B007B0040027B0075
:101CD0007B007B007B007B007B007B007B003D0268
:101CE0007B003A023702340231022E027B003702B7
:101CF0007B007B007B007B0079002B0228027B00AD
:101D00007B0025027B0022027B007B001F0249F43E
:101D1000E06909F4E061B1F5806F0AF1010A00F0B1
:101D20002A8100F29680B1F5807F00F0E680B1F55F
:101D3000407F7FF4F9AE079EB84D3768B848341D30
:101D400019F4804F0CBF8646AE463A4607940023EE
:101D5000002F00F07A810DF13A010F260F4602EABA
:101D600006040EEB040518094FEA121C4CEA037234
:101D70002978034652EA03003C4607F80119EED1E0
:101D80000DF13B031E1B00F06281F51C27467820F5
:101D90003021232307F8010C07F8021C07F8033C45
:101DA000033FA8458CBFC5EB08084FF0000819F0A9
:101DB000010606D158464146FFF772FE002840F062
:101DC0002A81DBF80040DBF8040039462A46A047A8
:101DD000002840F02081019C2D19002E40F08881C0
:101DE0009AF8003045440195002B7FF4A2AE01988B
:101DF00011B0BDE8F08F2A2B72D02E2B4FF00008C7
:101E00007FF400AF9AF801300AF10100A3F130022B
:101E1000092A60D80AF10202002502E0392B3FF6B8
:101E2000F3AE05EB850003EB40051378303D2F2B17
:101E3000924602F10102F1D86C2B7FF4E8AE9AF8D9
:101E400001306C2B00F0DA800AF1010A49F06009D8
:101E5000E0E6B1F5C06F00F0C580B1F5E06F00F0CD
:101E6000BA80B1F5A06F7FF45FAE07990B1D0868CB
:101E7000B8F1010F8CBF08F1FF384FF0000819F0DE
:101E8000010F07938DF8270040F0F5825846414630
:101E9000FFF706FE002840F0BE80019DDBF8003011
:101EA0004544DBF804000DF1270101220195984714
:101EB000002840F0B080019C08F1010844440194DE
:101EC00032E69AF80130682B00F0FA800AF1010A34
:101ED00049F040099EE62A2B00F0F980824691E6FF
:101EE000079805F1010A0368021D002B9846079226
:101EF000B8BF49F001096B7881E6002DACBF29F02D
:101F00001009012519F400540595049409F0E00521
:101F100000F08A80402D00F0878200F2F180002DD1
:101F200000F04782202D00F09F8200240025CDE99B
:101F300002450022069209F4C056B6F5805F00F013
:101F4000C581B6F5C05F00F00682B6F5006F00F0FF
:101F5000DF810DF13E040027059D41F60803AF42E5
:101F600009EA0300C0F0F68041F20801884200F05F
:101F700095820025F5E0079E3468311D0791002CFD
:101F800000F034822278002A00F04C82631C1E7814
:101F900018460133002EFAD1061B002D02DBAE429B
:101FA00028BF2E46B0458CBFC6EB08084FF000088E
:101FB00019F0010529D0DBF80030DBF804002146D8
:101FC0003246984738BB019C3619002D40F0888076
:101FD00046440196A8E50799019D0A68081D0790E7
:101FE0001560A1E5DBF80030DBF804000D490122A3
:101FF000984780B9019C0134019495E59AF8023024
:1020000049F080090AF1020A04E658464146FFF702
:1020100047FD0028CFD04FF0FF30E9E6745520008F
:1020200088552000B4552000402D00F0F6817ED860
:10203000002D00F0D181202D00F0E5810027002443
:1020400000250697CDE9024575E70DF13B043022E6
:10205000671E04F8012C042599E649F4C85958E68E
:1020600049F4106955E649F4806952E649F440792B
:102070004FE649F488594CE649F4813949E649F478
:10208000007946E649F4024943E649F4245940E61A
:1020900049F4A0693DE649F4C1393AE649F4B24948
:1020A00037E649F4A13934E649F4844931E649F484
:1020B00042492EE649F4E1392BE649F4C06928E6A5
:1020C0009AF8023049F020090AF1020AA2E5079DB8
:1020D0009AF80230291D07912D680AF1020A93E54A
:1020E00058464146FFF7DCFC00283FF471AF92E709
:1020F00058464146FFF7D4FC00283FF471AE8AE70A
:10210000602D00F05681802D7FF40FAF079AD31D0C
:1021100023F0070505F108040794D5E90023002AF8
:1021200073F10005C0F25081CDE9022301E7602D73
:1021300000F05281802D81D10798049AC11D21F0B1
:10214000070303F1080507950692D3E90045CDE999
:102150000245F0E641F20806B042C7EB050500F083
:10216000A48041F60802904205EB070100F08F8041
:1021700000263246049870B1069B002B40F0A380E5
:1021800009F00600022800F05A81AE4B062808BF6D
:10219000012608BF1A46711888458CBFC1EB080894
:1021A0004FF0000819F00100CDF80880049007D125
:1021B00019F0100F00F01D81DDF8088002904544F1
:1021C0004EB11146DBF80030DBF804003246984788
:1021D00000287FF420AF102D40D9A5F1110CDBF8B9
:1021E0000030DBF8040098491022CCF3001998471E
:1021F00000287FF410AFA5F11008B8F1100F2ED908
:10220000B9F1000F1AD0DBF80030DBF804008E497A
:102210001022984700287FF4FEAEA8F11008B8F10C
:10222000100F0BD81BE0DBF80030DBF804009847F8
:1022300000287FF4F0AEB8F1100F10D982491022B7
:10224000DBF80030DBF804009847A8F120087E494D
:1022500010220028E7D04FF0FF30C9E5A846B8F1BA
:10226000000F40F09B80DBF80030DBF804002146D3
:102270003A46984700287FF4CEAE019C049A3F1955
:10228000BE197519C2B9029C2D1901954CE4DDE9FE
:10229000022313433FF46CAF6C4B6D4A19F4804F2B
:1022A0004FF0020618BF1A4664E7002D08BF01254B
:1022B0000026E91932465DE758460299FFF7F0FB20
:1022C0000028E0D0A7E60126624A64E7DDE902457E
:1022D000254300F0B0800DF13D064746CE46DDE9CE
:1022E0000223D1084FF0070941EA437502EA0900C9
:1022F000D90830302A460B4634463070013E52EA47
:102300000309EED10DF13E02B846F146171B23E654
:10231000DDE9020150EA010500F08D800DF13D0577
:10232000DDE90267304639460A22002302F0DEFB6F
:1023300030322A70304639460A22002302F0D6FB9A
:1023400006460F462C46013D56EA0700EAD10DF13C
:102350003E031F1B00E64049404F19F4804F18BF51
:102360000F46DDE9022352EA030564D00DF13D0674
:10237000DDE902230F2402EA04001509391845EAB1
:10238000037218090D78034635703446013E52EA4F
:102390000305EFD10DF13E031F1BDDE5DBF8003037
:1023A000DBF8040028494246984700283FF45BAF19
:1023B00031E6079E3768301D3A46FB17002A73F155
:1023C00000050790BFF6B0AE544263EB4305CDE97C
:1023D000024501250695AEE5049F079E06973268E3
:1023E000301D0021029207900391A4E51C4C0626A3
:1023F000D3E5584602990092FFF752FB009A002855
:102400003FF4DEAE07E6079B049E1C7806961E1D71
:1024100000270294079603978DE5079B049D1C886F
:102420000695F4E72046B7E50799B1F900200B1DA2
:102430000793D31773E600270DF13E048CE5094A94
:102440000126A8E6A8552000C85520009C5520006C
:10245000A0552000A4552000745520008855200068
:10246000AC552000C4542000079890F90020011DAD
:102470000791D31753E6DBF80030DBF804000DF1C9
:1024800027010122984700287FF4C5AD58464146F0
:10249000FFF706FB00283FF40EADBCE5012507E77A
:1024A00010B50446006830B1002100F0D1FA54F8AC
:1024B000040F0028F8D110BDF0B5038883B005469D
:1024C00093B91E4800F0C4FB044630B1201DA1683A
:1024D00000F036F92468002CF8D1194B01221A704B
:1024E0004A202880012004E04A2B04D000202880C4
:1024F000032003B0F0BD882901D00120F9E70F487F
:10250000019200F0A5FB019A04460028E8D0011DC5
:102510008A4205D02468231D002CE1D09A42F9D1CB
:102520000648214600F0E2FB064E6069A169376863
:10253000306009B1E06988473760D1E710140020A6
:10254000141400202C14002041F2144341F21040D6
:1025500010B5C2F200030024C2F200001C7000F0AB
:1025600073FB40F25400C2F200002146BDE8104067
:1025700000F06EBAF8B50D4C0D4D27782E68044664
:102580006661A261E36157B9A1602146094800F084
:10259000ADFB08482146BDE8F84000F05BBB064BA8
:1025A000201D2B6000F0CCF82E60EEE71414002004
:1025B0002C140020101400205400002010B5084BEB
:1025C0000446187838B9E060206106482146BDE825
:1025D000104000F08BBB201D00F0C6F8F5E700BFEF
:1025E0001414002010140020704700BF10B50E4CCA
:1025F0002368B3B1FEF724FA23681A6859689B6808
:1026000089180A1A4BB193E812009B686118091ADD
:102610008A4228BF0A46002BF5D11018034A1060E1
:1026200010BD02490B6010BD181400201C140020BE
:1026300040F26400C2F2000000F02ABA2DE9F04135
:102640000388054633B92A4A136059232B80012099
:10265000BDE8F081592B04D0002028800320BDE87C
:10266000F08187291CD08229EFD1214F4FF000083B
:102670003C68002CE9D0002604E0A1682646002929
:10268000E3D00C46204600F041FA0028F5D022465F
:10269000E068882100F0ACF9F0B1FFF7C9FFECE782
:1026A00013480368002BD0D0D9688A4203D008E0D1
:1026B000D9688A4204D19B68002BF9D10360C4E732
:1026C000036099680029C0D0C86882420BBF89683E
:1026D0000B4699608968F5E7E060A2682EB1B260A8
:1026E000C4F80880FFF782FFC2E73A60F8E700BF4E
:1026F0001814002010B50446FFF79AFF0E49E3684E
:102700000A684BB142B194420FD0104601E08442B6
:102710000BD080680028FAD1A260084A0C601368C8
:10272000E360BDE81040FFF761BF04480368E36061
:10273000BDE81040FFF75ABF181400202C140020E9
:1027400010B5044600F0DAF92046BDE81040FFF766
:10275000D1BF00BF41F21843C2F200031868003035
:1027600018BF0120704700BF10B50F4B04461A6810
:10277000904214D04AB1936883420AD02BB1986832
:10278000A04207D00346002BF9D10020A060E060F2
:1027900010BD1346A1689960FFF728FFF5E782682E
:1027A0001A60FFF723FFF0E71814002038B5837B89
:1027B0000446DB070D460FD583686BB10A480460F9
:1027C0000220A07304F10C009847811E012904D94E
:1027D000832D02D00122A27338BD20462146BDE8D8
:1027E000384000F003B800BF2C1400202DE9F84356
:1027F000264F274E3C68054684428946D6F800801D
:1028000042D0002C31D0234601E0002B35D01B688C
:102810009D42FAD14BB3A87BC0B10021A97354B13A
:10282000A54220464FF087012A4601D0FFF7BEFFA0
:102830002468002CF4D1AC683CB14D4505D035601E
:1028400005F10C0083210022A0473C68A54216D068
:102850004CB12368AB420AD02BB11A68AA4207D008
:102860001346002BF9D1C6F80080BDE8F883234653
:1028700028681860C6F80080F7E7BDE8F883296883
:10288000C6F800803960F0E72346C3E7341400201F
:102890002C14002070B50C4B0C481C6800250570EA
:1028A00084B1012601E0246864B1E17B0029FAD0FB
:1028B000A673E573204682210022FFF777FF246884
:1028C000002CF2D170BD00BF341400202814002069
:1028D00041F2BC53C2F200031878421C1A707047D0
:1028E00070B441F2234041F2BC5541F2214441F21F
:1028F000344141F22C420023C2F20005C2F200042E
:10290000C2F20000C2F20001C2F200028A262E705A
:10291000237003700B60136070BC70472DE9F8439F
:10292000244C23780BB1FFF7B5FF234D2B781BB355
:10293000DFF898C021499CF80060214F06EB460261
:1029400092008818DFF88880895C01364268013B74
:102950008068DFF8809006F01F06DBB23970C8F897
:102960000020C9F800008CF800602B7058B1812954
:1029700006D0FFF71BFF2B7822789818BDE8F88364
:1029800001238373F5E70F490F4E0A6832605AB985
:10299000F2E739783068D8F80020FFF707FF33688E
:1029A000196831600029E6D020780028F1D0FFF7BF
:1029B00071FFEEE7281400202314002038140020B3
:1029C0002014002034140020B81500202114002009
:1029D000301400202414002041F2284241F2234305
:1029E000C2F20002C2F20003117818784018704752
:1029F000F0B40E4D2B78202B16D00D4CDFF838C0DC
:102A000026789F1907F01F0404EB4406B7000CF862
:102A1000071008490CEB07060133B0600C707260B8
:102A20002B700020F0BC70470120FBE7231400202E
:102A300021140020221400203814002038B541F25F
:102A40002C44C2F200042568FFF7B0FE256038BDB3
:102A500030B40E4D044628680A46A04206D038B16C
:102A6000034600E023B11B689C42FBD130BC704799
:102A7000002CFBD0206001210020A173A0818121C6
:102A800020462C6030BCFFF7D9BF00BF34140020B3
:102A900038B1837B591E012903D8024A0123C3732D
:102AA0001370704728140020FEF732B838B5084C70
:102AB0000246049D206882E82A0010B122600020AE
:102AC00038BD08462260FEF725F8002038BD00BF5B
:102AD000C015002010B5084C236863B11846816802
:102AE00000225B6822609847206820B10068BDE83A
:102AF0001040FEF70FB810BDC015002010B54160A2
:102B00000446FDF79DFF206010BD00BF10B50446D0
:102B1000FDF796FF94E80C00C2F101021018834201
:102B20002CBF0020012010BDF8B504880546672C95
:102B300008D0792C1BD0B4B9FFF7CAFE1F49087022
:102B40001F4804601E4C1F4E04E00A2817D023685B
:102B50007E2B2FDD1C4800F06DF9431CF5D167205A
:102B600028800120F8BD002303800320F8BD8529BB
:102B700001D00120F8BD124C00262660E2E7104C7F
:102B8000104F23680D4A0026117803F1010E3A46D2
:102B90003046FE54C4F800E0FFF72AFF0B488521B9
:102BA00000683246FFF724FF0028E5D1792129800B
:102BB0000120F8BD5A1CF0542260CBE712200020FF
:102BC000D016002050160020481600202C1400209B
:102BD0000D2810B5014619D00D4C237833B10A28C1
:102BE0000CD00C48FFF754FF012010BD0A4800F03C
:102BF0000BF90028F5D101212170F2E7064800F019
:102C000003F90028EDD000202070EAE7002010BD75
:102C100044160020740000204816002041F248604D
:102C200041F2C45108B5C2F20000C2F20001802294
:102C300000F0E2F840F27400C2F200000021BDE8AA
:102C40000840FFF705BF00BF00230360704700BFC7
:102C50000068704710B404685CB1A14222D02368B8
:102C60000BB906E0134699420FD01A681C46002A99
:102C7000F8D100230B6002680AB910E00246106820
:102C80000028FBD1116010BC704754B10A68226063
:102C900000221A6000230B600268002AEFD1016055
:102CA000F1E70C46226823460260F1E730B405687C
:102CB00065B1A94216D02B6843B12C4600E01346FB
:102CC000994207D01A681C46002AF8D10D600160AD
:102CD00030BC70472CB10D68256000251D6005686B
:102CE000F4E70D462A682B460260F6E710B4046844
:102CF0005CB18C4212D023680BB906E013469942AE
:102D000005D01A681C46002AF8D110BC704724B1BF
:102D10001868206000221A60F7E70C4621682346F5
:102D20000160F7E703682BB100201B680130002B1E
:102D3000FBD170471846704700B10068704700BF6C
:102D40004FF4E043C4F20D03186847F2140140F059
:102D5000040047F218021860C4F20D01C4F20D021B
:102D60000B68116843EA012080B2704730B44FF419
:102D7000E043C4F20D031D6842F2A80425F00C05DF
:102D80001D6048F224600123C4F20D042360C4F2E4
:102D9000080048F6380108230360C4F2080148F22D
:102DA0006462E320C4F2080208601168CB07FCD516
:102DB000002248F29C601346C4F208000168013307
:102DC00001F001010A435200102B92B2F6D10AB968
:102DD0001346F3E747F21403C4F20D03100A48F652
:102DE000380102F0FE021860C4F208011A60EF23F5
:102DF0000B6030BC704700BF0023013A01600271D4
:102E000043718371704700BF10B4034644798079E1
:102E10001A79201A1040824209D01A6801201155EF
:102E20005A79197912180A405A7110BC704700205B
:102E3000FBE700BF10B4837941790279C91A1142C6
:102E400007D001685C1CCB5C22408271184610BC24
:102E500070474FF0FF30FAE70B880380704700BFE0
:102E6000022208B502F02EF9D0F1010038BF00208F
:102E700008BD00BF08B545F23853C0F220031868FA
:102E8000804745F23461C0F220014A68904745F21C
:102E90001063C0F220035868804745F26861C0F2B1
:102EA00020014A68904708BD30B4164B164819688F
:102EB000814204D0154A128830BC02F05FB9144D2B
:102EC0002A88EAB111480488C4B1885C0C19CB4344
:102ED00001F8010B1B19A14203F001000ED020B133
:102EE0008B5C01F8013BA14208D0885C0B4603F8DB
:102EF000010B985C4870591CA142F6D10021298031
:102F000030BC7047D41600200C170020DA160020C1
:102F10009017002010B541F2D863C2F2000319786F
:102F200041F2DC62C1F13004C2F2000251182246C3
:102F300002F024F9204610BDF8B50E4B0E4A1B785E
:102F40001688C3F13005AC19802C074602DD002439
:102F50002046F8BD09492A46C91802F00FF9084B66
:102F600008481988026878195118324602F006F9A3
:102F70002046F8BDD8160020DA160020DC16002006
:102F800090170020D416002010B40A4A1378834208
:102F90000DDB094CC3F130012488C9B2091989B28B
:102FA0000918802903DC181A1070012000E00020A5
:102FB00010BC7047D8160020DA16002010B4084B59
:102FC0001A88824209DB074980B20C88121A00195C
:102FD00008801A80012010BC70470020FBE700BF6A
:102FE000DA1600209017002041F2DA63C2F20003E3
:102FF0001880704741F29073C2F2000318880149AB
:10300000401870470C17002041F2D862C2F200024B
:10301000107841F2DC63C2F200031818704700BF59
:1030200041F2D463C2F2000318680249401A18BF83
:10303000012070470C17002041F2D463C2F2000354
:103040001868704741F2DA63C2F2000318887047CB
:1030500041F2D863C2F20003187841F2DA61C2F299
:103060000001C0F130020B88D0B2C11888B270479D
:1030700008B50E4B002103F130009A1C598004332F
:1030800083425180F9D10A480A49FFF7E5FE0A4810
:103090000849FFF7E1FE09480649FFF7DDFE084849
:1030A0000449BDE80840FFF7D7BE00BF1E2000203E
:1030B00018200020045620001A2000201C20002088
:1030C0001E20002010B441F2DA610024C2F2000197
:1030D00041F29070C2F200000C8041F2D8620749C0
:1030E00041F2D463C2F20002C2F200030480302035
:1030F0001070196010BCFFF7BBBF00BF0C17002099
:1031000038B505460C46FFF7DDFF41F2D463802C4D
:1031100028BF8024C2F2000318682946224602F024
:103120002DF841F2DA60C2F200000480204638BD7A
:10313000F0B40B4E8C46054606F1300734460FCCF2
:1031400028606960AA60EB601035BC422646F5D164
:10315000044B03CBCCF80000CCF80410F0BC704753
:10316000202000201820002070B40546AA68EB68D3
:1031700000680E460A4C69680FC455F8100F69685C
:10318000AA68EB680FC455F8100F6968AA68EB6865
:10319000044D0FC43068716803C570BC704700BF30
:1031A000202000201820002042F22003C2F2000359
:1031B00023F810100120704742F22003C2F20003EE
:1031C00033F81000704700BF08B542F21803C2F28E
:1031D0000003183803EB4000FFF73EFE012008BD56
:1031E00042F218031838C2F2000303EB40007047A4
:1031F00008B545F26863C0F220039868804708BDAF
:1032000008B545F23463C0F220035869804708BD11
:1032100008B545F23463C0F220039969884708BDB8
:1032200008B5024BD86900B1804708BD345620006C
:1032300010B5044648B1006BFFF70AFD024620B105
:10324000024B03482146DB68984710BD34562000E6
:10325000893420002DE9F041064619200F46FFF77A
:10326000BFFF524B05461A78002A00F08480504B6D
:103270001988002960D04C1CA2B20A201A80FFF7DE
:1032800093FF4C48FFF7E4FC044630B938E0204691
:10329000FFF752FD0446002832D0201D2946FFF7D3
:1032A000DFFD0028F3D0444800F052FB054600281B
:1032B0004DD0424800F04CFBA860002843D000F0FD
:1032C000CBFB686000283AD00920D5F80880FFF7CA
:1032D00073FF002857D1032088F808000E2088E8E3
:1032E000C000FFF769FF01282946206B51D0FFF786
:1032F000B1FC206BFFF7ACFC85424DD0BDE8F081FE
:103300002F4800F025FB044668B32946201DFFF72F
:10331000A3FD04F12C050021284684F8281084F828
:10332000291084F82A10E1622563FFF78DFC2148FB
:103330002146FFF78FFCB6E7022201219DE71F48D7
:10334000A96800F031FB1C48294600F02DFB206BDA
:10335000FFF7E8FC38B917482146FFF7C7FC1848C3
:10336000214600F021FB3046394604220123BDE806
:10337000F04100F007B901201870FFF7E1FC0C4B99
:103380000146188075E70920FFF716FF88F8080046
:10339000A4E7FFF78BFCACE70A4A04F10800002120
:1033A0002346BDE8F041FFF7E5B800BFA4170020B1
:1033B000D8180020081800209C000020840000205D
:1033C000900000203132200040F29C0008B5C2F28B
:1033D000000000F0ABFA40F28400C2F2000000F0FE
:1033E000A5FA40F29000C2F20000BDE8084000F0EB
:1033F0009DBA00BF70B504460D46002928D0006B69
:10340000FFF774FC686800F065FBA968184800F0D5
:10341000CBFA1848294600F0C7FA206BFFF718FCD2
:10342000B8B11548002384F8283084F8293084F88E
:103430002A30C169884704F10802002814BF0146F8
:10344000102110460D4A2346BDE87040FFF792B8A0
:1034500070BD04F10800FFF7B1F821460848FFF7F6
:1034600045FC08482146BDE8704000F09DBA00BF09
:10347000840000209C0000203456200031322000BF
:1034800008180020900000202DE9F04F064681B07A
:103490000F46002844D0032908D8DFE801F03B3567
:1034A0003B0290F82A30581C86F82A00306BFFF750
:1034B000CFFB044630B933E02046FFF73DFC04461D
:1034C00000282DD00A21606800F05CFB05460A2028
:1034D000FFF772FE8542EFD1A5680DB3781E012873
:1034E000D5F800A0D5F8049096F828801BD930466E
:1034F0002146FFF77FFF504649463A46434601B012
:10350000BDE8F04F00F03EB890F829104A1C80F852
:103510002920CBE790F82840631C80F82830C5E7C5
:1035200001B0BDE8F08F1549CA699047002814BF63
:1035300083464FF0100BFFF703FC96F828102B7A08
:103540009942D4D20122B8F1030FA8BF4FF003086B
:1035500002FA08F101FB0BF3B0FBF3F203FB1201DB
:1035600006F108005944064A3346FFF703F860683D
:1035700001B0BDE8F04F00F0A7BA00BF34562000FC
:103580003132200010B5044618B1084611461A46DB
:10359000A04710BD08B545F23853C0F22003186AA1
:1035A000804708BD0020704708B545F23853C0F287
:1035B0002003186A804708BD2DE9F047054684B00E
:1035C00018200E464449FFF7FFFD01210B20FFF7AD
:1035D000EBFD424B18688047002832DBFFF714FDF3
:1035E000DFF8008190F80290D8F80440FFF70CFD56
:1035F0000746FFF72DFD01463846A0471920FFF783
:10360000EFFD3749FFF72CFCD8F818400746A047D4
:1036100050B101220024284631460123FFF7B2FFB2
:10362000204604B0BDE8F0876FB1D8F808200192B9
:10363000FFF70EFD019B984760B987B10246012450
:10364000E9E70522E6E7D8F81C1088470028ECD007
:103650000122DFE702280CBF01220422DAE7FDF78E
:10366000AFFA8246FDF7CAFB4FF6F370CFF6FF7054
:10367000CAEB0007FDF7A4FAF842FBD4A047D8F83C
:103680001C7008B9B84700B3FDF79AFA8246FDF7F7
:10369000B5FB4FF6EB72CFF6FF72CAEB0204FDF7F3
:1036A0008FFAE042FBD4B84708B90222B2E70321FF
:1036B000D8F8103003A898470328AAD19DF80E0027
:1036C0004845A6D100220124A5E7064C6169884738
:1036D0000028D9D002229DE7142000207456200033
:1036E000045620003855200070B506460D4652B1EC
:1036F0005068146800F012FA30462946FFF75CFF64
:1037000022460028F3D170BDFFF756BF08B5044B21
:1037100010B9586A804708BD196A884708BD00BFBC
:103720003855200008B5FFF78DFCFFF763FCFFF765
:1037300089FC03281BD00E4B58688047002816DBF5
:103740001920FFF74DFD0B49FFF78AFB38B9192007
:10375000FFF746FD0849FFF783FB00B908BD00F0FD
:1037600001FB20B900F0BCFB0449CA68904708BDC2
:10377000745620001420002004562000105620000B
:1037800008B543695B6803B1984708BD10B50446A6
:1037900082B01820FFF724FD014601A8FFF75CFB6B
:1037A00063691A6812B1204601A9904702B010BDA2
:1037B00070B5144645F25862C0F2200206460D4626
:1037C00000F07AFC45F254612846C0F22001746191
:1037D000BDE8704000F040B800F07EBC42F2140139
:1037E00010B5C2F2000104461820FFF7EDFC204698
:1037F000BDE8104000F072BC41F6DC00C2F20000EF
:10380000FFF722BA0346818041F6DC00C2F20000D5
:103810001946FFF71FBA00BF014641F6DC00C2F2AD
:103820000000FFF763BA00BF10B504460948FFF770
:103830000FFA50B18388A34203D109E08188A142E5
:1038400005D0FFF779FA0028F8D1002010BD10BD8F
:1038500010BD00BFDC18002038B50D46FFF7E4FFAF
:10386000044620B18560284600F072FD207338BD03
:1038700038B500F04DFD05460A48FFF7E9F9044662
:1038800040B1636803B198472046FFF755FA0446F4
:103890000028F6D125B12846BDE8384000F020BC0C
:1038A00038BD00BFE018002010B500F0BFF8FFF7EA
:1038B00009FC00F021FC00F029FD02204FF400710A
:1038C0004FF4F0524FF4E123BDE8104000F002BD88
:1038D000F8B506460B480D461746FFF7B9F90446FA
:1038E00048B1A368284603B198472046FFF724FA59
:1038F00004460028F5D1304629463A46BDE8F8404E
:1039000000F0F4BBE018002010B5044600F00EFDF6
:1039100038B1FFF7C9FA034B034821469A6890472C
:10392000012010BD10562000D138200010B5002114
:1039300004464288406801F0CFFC23886288A06872
:1039400002FB03F20021BDE8104001F0C5BC00BF3E
:1039500030B44588002D25D043681A7852B1591CDF
:103960000022EB0718D40122AA4218DA0C780B4681
:1039700089188CB901251D700588806802FB050037
:103980000EE00B4609785C1C0029F3D0234624780E
:103990000132591C002CEDD00132AA42F1DB00208B
:1039A00030BC70472846FBE7F0B4478882680FB305
:1039B0008A4222D00588002317F0010F2A4413D130
:1039C0000123BB4216DA914202EB050416D02246CF
:1039D00001335419BB4204EB05060BDA91420DD0BA
:1039E0000133A1420AD0324601335419BB4204EBE1
:1039F0000506F3DBFF20F0BC704700234168CA5C7A
:103A000022B1013ACA544068C05CF4E71046F2E7BC
:103A100083688B4208D84288008800FB02339942B1
:103A20002CBF0020012070470020704740F2C000EA
:103A300008B5C2F20000FFF779FF40F2A800C2F219
:103A40000000FFF773FF40F2B400C2F20000BDE8CF
:103A50000840FFF76BBF00BF38B5FFF7E1FA90B140
:103A60001648FFF775FF044628B3FFF7EBFA2080EE
:103A7000FFF7E2FA606004F10800FFF74BFA84F800
:103A80003800204638BD0E48FFF762FF044690B16B
:103A90000C48FFF75DFF0546206060B10230FFF77C
:103AA0004BFA2B4623F8820B184605F1B201FFF7BB
:103AB0003FFB204638BD0024204638BDB40000201E
:103AC000A8000020C0000020016801F18200B2318E
:103AD000FFF72EBB10B5014604460D48FFF798FFCF
:103AE00058B90C482146FFF793FF00B910BD0948AB
:103AF0002146BDE81040FFF757BF21680648FFF791
:103B000053FF03482146BDE81040FFF74DBF00BFFB
:103B1000A8000020B4000020C000002038B50146F5
:103B200004461648FFF774FFC8B915482146FFF749
:103B30006FFF00B938BDFFF7C5FA21886068FFF74D
:103B4000DFFA94F83800FFF71FFAFFF75DFA94F8F0
:103B5000382004F10801BDE8384001F00FBB2468AB
:103B6000254635F8821BA01CFFF7CAFA284604F147
:103B7000B201BDE83840FFF7F7BA00BFA800002047
:103B8000B4000020036803EB4101B1F882007047E4
:103B900070B590B0FFF756FA01AC0646FFF72AFA67
:103BA0003146224600F0F0FC002843D00F98301A2E
:103BB000FFF704FA00283DD09DF8093013B3BDF893
:103BC0000E2045F249418A4203D04FF6FF708242EF
:103BD00030D1022B0CBF0A2310234FF6F475E218E4
:103BE000CFF6FF75131D2D1B08E011F8014DFF2CBA
:103BF0000B461AD113F8012DFF2A16D1E818002818
:103C00001946F2DC0DF11A011820FFF7DDFA9DF8D4
:103C100006101220FFF7C8FA9DF80C100D20FFF7D0
:103C2000C3FA0F99701A10B070BD04A91920FFF7DC
:103C3000CBFAE7E74FF0FF30F5E700BF10B590B0E3
:103C40003C2201A8002101F047FB424B1A78002AD0
:103C500065D00123002412208DF804308DF8054032
:103C6000FFF7AAFA8DF806001920FFF7B9FA3A49CA
:103C7000FFF7F6F8002863D08DF8074000220A20ED
:103C80008DF808208DF80A20FFF796FA00283BD01F
:103C90000A20FFF791FA8DF80C0045F24941022401
:103CA0001920ADF80E108DF80B40FFF799FA2A494C
:103CB000FFF7D6F8002839D0FF208DF809408DF89D
:103CC00010008DF8110045F2494224490DF11A0007
:103CD000ADF81820FFF7C0F8FFF78CF90E90FFF74A
:103CE000B1F90F9001A800F07DFB0446FFF74CF9F5
:103CF00000282BD0FFF788F92246014601A800F0E2
:103D000087FB204610B010BD154A0A2013785C1CB2
:103D100019468DF80C301470FFF746FABDE7012004
:103D20001870FFF70DF80E49087092E71920FFF799
:103D300057FA014604A8FFF78FF88DF80940C2E74B
:103D40000B20FFF739FA8DF8070097E74FF0FF34A3
:103D5000D7E700BF611F0020045620001420002078
:103D6000601F002038B55D4C1820FFF739FA214656
:103D7000FFF776F8002840F092801820FFF730FA1D
:103D8000E11CFFF76DF8002840F08B801820FFF74A
:103D900027FAA11DFFF764F8002840F0848018205E
:103DA000FFF71EFA04F10901FFF75AF800287CD149
:103DB0001820FFF715FA04F10C01FFF751F800285D
:103DC00075D11820FFF70CFA04F10F01FFF748F83E
:103DD00000286ED11820FFF703FA04F11201FFF753
:103DE0003FF8002867D11820FFF7FAF904F1150110
:103DF000FFF736F8002860D11820FFF7F1F904F139
:103E00001801FFF72DF8002859D11820FFF7E8F91D
:103E100004F11B01FFF724F8002852D11820FFF706
:103E2000DFF904F11E01FFF71BF800284BD1182021
:103E3000FFF7D6F904F12101FFF712F8002844D169
:103E40001820FFF7CDF904F12401FFF709F8002845
:103E50003DD11820FFF7C4F904F12701FFF700F85E
:103E6000002836D11820FFF7BBF904F12A01FEF72C
:103E7000F7FF80BB1820FFF7B3F904F12D01FEF71F
:103E8000EFFF00B938BD0F250D20FFF795F905EBC1
:103E900045056419A378191A4842484138BD0025E0
:103EA000F2E70125F0E70225EEE70325ECE704251C
:103EB000EAE70525E8E70625E6E70725E4E708251C
:103EC000E2E70925E0E70A25DEE70B25DCE70C251C
:103ED000DAE70D25D8E70E25D6E700BF641F0020DE
:103EE00070B5734C1820FFF77BF92146FEF7B8FF39
:103EF000002840F0B4801820FFF772F9E11CFEF7AB
:103F0000AFFF002840F0B8801820FFF769F9A11D25
:103F1000FEF7A6FF002840F0B1801820FFF760F9F7
:103F200004F10901FEF79CFF002840F0A980182049
:103F3000FFF756F904F10C01FEF792FF002840F05C
:103F4000A1801820FFF74CF904F10F01FEF788FF5C
:103F5000002840F099801820FFF742F904F112017F
:103F6000FEF77EFF002840F091801820FFF738F917
:103F700004F11501FEF774FF002840F08980182035
:103F8000FFF72EF904F11801FEF76AFF002840F050
:103F900083801820FFF724F904F11B01FEF760FF6E
:103FA000002877D11820FFF71BF904F11E01FEF756
:103FB00057FF002872D11820FFF712F904F12101F0
:103FC000FEF74EFF00286BD11820FFF709F904F126
:103FD0002401FEF745FF002866D11820FFF700F9FD
:103FE00004F12701FEF73CFF00285BD11820FFF702
:103FF000F7F804F12A01FEF733FF002856D1182004
:10400000FFF7EEF804F12D01FEF72AFF0F22501EF4
:1040100000EB400162181388264910469678551A1D
:1040200020F8033FD31E033D8B42867005F0010547
:1040300015D035B11D889878931F8B4215809070EC
:104040000DD018889A78A3F803005A711A4632F8EE
:10405000030D927818809A70063B8B42F1D10D20A7
:10406000FFF7AAF8A0701820FFF7BAF80146104829
:10407000BDE87040FEF7F0BE0122C8E70222C6E7A5
:104080000322C4E70422C2E70522C0E70622BEE7F6
:104090000722BCE70922BAE70822B8E70A22B6E7F6
:1040A0000B22B4E70D22B2E70C22B0E70E22AEE7F6
:1040B000641F0020611F002070B505460C4616469F
:1040C000FFF7A0FB45F27C612046C0F220012E6183
:1040D000BDE87040FFF7C0BBFFF79EBBFFF714BC05
:1040E00008B50369196801B1884708BD08B50369B7
:1040F0005B6803B1984708BD41F69470C2F20000B6
:10410000FEF7A2BD41F69873C2F200031860704733
:1041100041F69470C2F20000FEF79ABDF8B507466A
:104120000A480D461646FEF793FD18B90CE0FEF757
:1041300003FE48B18488AC42F9D1846824B1394681
:104140002A463346A047F8BDF8BD00BF941F0020A3
:10415000704700BF2DE9F04782B00E46FEF74AFFD8
:1041600003888146ADF80030BDF80080FEF76AFF95
:104170004FEA88018A1C82423FD8B8F1000F3CD038
:10418000D9F8020002AF47F8040D01253046BDF80A
:104190000410BDF8062008F1FF34FFF7BFFF4545C6
:1041A00004EA050A09F1060427DABAF1000F0DD076
:1041B000236802253B60BDF804103046BDF8062098
:1041C000FFF7ACFF454509F10A0416DA54F8041B61
:1041D00030463960BDF80410BDF80620FFF79EFF99
:1041E00054F8042B02353A60BDF804103046BDF88F
:1041F0000620FFF793FF4545E8DB02B0BDE8F087F6
:1042000010B541F69C74C2F2000444F24522616E7E
:104210000023C0F2200204F13800FEF7ABF9FEF7EC
:104220008FFD636E44F26122B0FBF3F101FB1301D9
:10423000C0F2200204F118000023BDE81040FEF790
:1042400099B900BF41F69C73C2F20003596E1A6E11
:104250004800904294BF58665A66FFF7D1BF00BF2E
:1042600010B5FEF72FFFFEF7C5FE002303800446BE
:10427000FFF74EFF60B90EE02288818804EB8203CD
:104280005980C188013299802280FEF755FD10B116
:10429000017B0029F0D123884FF6FE7099008A1C1B
:1042A0001040FEF7A1FE208800B910BD0248BDE80D
:1042B0001040FFF793BA00BF9C1F00209DF800300C
:1042C000012B00D070470248826D4266FFF798BF0D
:1042D0009C1F0020F8B541F69C74C2F2000407460A
:1042E000154645F280620E4620463946C0F220024D
:1042F0001F46FFF75DFA44F2BD20C0F22000A6651C
:10430000E5652766BDE8F840FFF7FCBEFFF774BA25
:10431000054B10B518688047044618B10120A188E4
:10432000FEF742FF204610BD8C56200038B545F2FE
:104330008C63C0F22003596805468847A988044663
:104340000120FEF731FF201C18BF012038BD00BF3F
:1043500008B545F28C63C0F220039968884708BD10
:1043600000230A4610B402F8013B01324B7002F8F8
:10437000013B02F8013B137043799A0701D00222F6
:104380000A70C3799B0701D002228A70437913F027
:10439000030302D0C279920716D100220271023BB8
:1043A000DBB2012B9ABF0E4AD35C00234B70C0795D
:1043B00000F00303981EC3B2012B9ABF084AD35CD6
:1043C0000023CB7010BC7047848A42899442E4D1A8
:1043D0000123037100238B70437903F00303DEE7AD
:1043E0008856200000B583B06946FFF7B9FF9DF8F5
:1043F00000009DF80120C11C9DF8023088189DF82E
:104400000320C1189DF804308818C01803B000BDFF
:104410002DE9F04383B00C46694690460546FFF708
:104420009FFF9DF800309DF80160DA1C9DF8029016
:1044300090199DF8037000EB09029DF80410D01943
:104440004218424500F38D80A97895F8018095F8CF
:1044500000C001F001000001E97808F001082A79A4
:1044600040EAC8000CF0070E01F0010140EA0E001E
:1044700040EA411002F0010240EA82112170AA795B
:10448000687902F00302E979120100F0030042EAC0
:10449000800040EA811161702A7A022BA2706CD0F0
:1044A00003217EB306F1080301EB0608E8185FFA62
:1044B00088FCCA434B1C624490F803E0DBB202F074
:1044C0000108C21C634504F801E019D0B8F1000FDF
:1044D00008D012F8018C5A1C04F80380D3B2821C55
:1044E00063450DD012F8018D581CC0B204F803804A
:1044F000431C12F8018DDBB2634504F80080F1D152
:104500008919C9B2B9F1020F2DD037B307F11006DE
:10451000AD19CA19D6B26879CA434B1C9219DBB2DD
:10452000605402F001006A1DB34214D038B112F891
:10453000010C5A1CE054D3B22A1DB3420BD012F81E
:10454000015D581CC0B2E554431C12F8015DDBB29A
:10455000B3422554F3D1C919C9B2084603B0BDE826
:10456000F0830020FAE7AA8A481C6254AA8AC3B2E0
:104570000231100AE054C9B2C7E76B890521E37024
:104580006889020A22718CE702292DE9F0470F465B
:104590000546144649DD0378427803F00706C3F365
:1045A000801AC2F381094FEA9218C3F3C000C3F323
:1045B0000011C2F30112C3F3401326706070A170A2
:1045C000E37084F804A084F80590A27184F8078051
:1045D000AE782672B9F1000F2DD02879E9786E1DDA
:1045E00001EB0023B9F1020F638167D0B9F1030F2A
:1045F00034D0B8F1000F29D0BAF1000F18D1727879
:1046000016F8023B03EB0220A082B8F1020F4AD059
:10461000B8F1030F35D0751B7B1BA3636663AF42F4
:10462000ACBF28460020BDE8F0870020BDE8F08739
:104630006189A182E9E704F10C002649FEF70CFC30
:10464000EE1CA4F80A90B8F1000FD5D104F11600C1
:104650002049FEF701FCA4F81480DCE72A7B05F171
:104660000D062273E87A6073A97AA1736B7AE373FB
:104670002A7A2274E8796074A979A1746B79E37459
:10468000B7E7F179A175B279E2757379237630795C
:104690006076F178A176B278E2767378237716F8AF
:1046A000080B6077B7E70B4904F11600FEF7D4FB5F
:1046B0007178A17516F8022BE275ACE704F10C00D5
:1046C0000449FEF7C9FBAA79EE1D2273687960736D
:1046D0008FE700BF0456200003784BB1831C0020F5
:1046E00013F8011C13F8022B4018002AF8D1704768
:1046F00018467047072B2DE9F0077EDD2ABBDE1038
:1047000001220D78741EB242057004EA02040DD035
:1047100024B14C780222B242447007D08D5C541C04
:1047200085540D5D0232B2420555F7D113F00703EF
:1047300008D08C5C3949C95CC3F10803214041FAB7
:1047400003F18154BDE8F00770470E784C784FEACA
:10475000E30844EA062505FA02F5C5F307260546EF
:1047600000EB080CC44305F8016B6444654504F094
:1047700001060C462AD06EB10C4614F8017F66780B
:1047800046EA072606FA02F6C6F3072605F8016B85
:1047900065451BD0671C94F801A03C4614F8019FA6
:1047A0002E4649EA0A2909FA02F9C9F3072906F847
:1047B000019B97F80190677847EA092707FA02F703
:1047C000C7F307276F70751C6545E3D113F0070326
:1047D000B8D001EB080511F80840697841EA0421D6
:1047E00001FA02F20D49C95CC3F1080301EA222271
:1047F00042FA03F100F80810A4E70C78497841EA7E
:10480000042101FA02F20549C95CC3F1080301EA77
:10481000222242FA03F1017094E700BF985620006B
:104820002DE9F04782B0FEF7E5FB04460220FEF7D3
:10483000C5FB00284CD06078237803EB002188B2B8
:10484000FEF7F2FF8146002842D0FEF7D3FB99F82D
:104850000C20804612F0070018BF012000EBD200A8
:10486000FEF7ACFB002833D0D9F808502F785FB39F
:1048700000240235A2460BE001A8FFF73BFF15F824
:10488000020C01A9FEF7A0FC15F8027BA419DFB108
:1048900015F8016C4FEAE40E172F0DF1060004F035
:1048A000070208EB0E013346E6D8ADF806A0FFF785
:1048B00021FF15F8020CBDF80610FEF775FC15F87F
:1048C000027BA419002FE3D1484602B0BDE8F0876F
:1048D0004FF00009F8E700BF2DE9F00F072B82B079
:1048E00040F3A48000292FD1DE1001211578741E19
:1048F000B142057004EA01040DD024B154780221BC
:10490000B142447007D0555C4C1C4554155D0231D2
:10491000B1420555F7D113F0070311D0545CC3F130
:10492000080244FA02F4C3F1100304FA03F3425CF0
:10493000C3F307241443445442185078034353707C
:1049400002B0BDE8F00F7047164616F8014BC1F1F2
:10495000080804FA08F4DD10077890F801C002EBAB
:10496000050BC4F307290195D54344EA0C045D44C3
:1049700049EA07075E454470077005F001050446E3
:104980003AD08DB116F8015B477805FA08F5C5F302
:10499000072C04464CEA070704F8017F67785E4558
:1049A00045EA0705657027D0374617F8019B25466D
:1049B00009FA08FC15F8019FCCF3072A4AEA09090D
:1049C00084F8019095F801902C464CEA090C85F882
:1049D00001C096F8019014F8016F09FA08FCCCF3B5
:1049E000072949EA06066E7065787E1C4CEA050CBC
:1049F0005E4584F801C0D7D113F00703A0D0019C15
:104A0000C3F11005125DC3F10804091942FA01F25D
:104A1000D3B203FA05F3019DC3F30721425D1143AD
:104A20004155421950780343537089E71478C1F116
:104A30001001CB1A04FA03F302784178C3F3072478
:104A400022430B43027043707AE700BF2DE9F04127
:104A5000027B82B012F0070318BF012303EBD205DB
:104A60000446A81CFEF790FA10B902B0BDE8F08128
:104A7000FEF7CAFAA1880170A288130A4370FEF7F4
:104A8000C3FA00F1020800212A46404600F024FC47
:104A9000A568297841B3023500240DE0FEF7A0FB9C
:104AA000474404F00701024633463846FFF714FF37
:104AB00015F8021BA419B9B1E7101729084615F813
:104AC000016CEBD8FEF778FB04F00701ADF80600A7
:104AD0000DF1060208EB07003346FFF7FDFE15F85F
:104AE000021BA4190029E7D10120BEE74BB942B946
:104AF000002908BF002802D04FF0FF31084600F01F
:104B00003BB882B0EC462DE9005000F01DF8DDF80E
:104B100004E002B00CBC70472DE9F04116469846FF
:104B200004460D4600F02AF806FB01FCA6FB002314
:104B300000FB08C7FB18A21A65EB0303069CC4E937
:104B40000023BDE8F08100BF2DE9F0419046064604
:104B50000F461D4600F070F900FB05F3A0FB084569
:104B600008FB0138069B4544341B67EB0505C3E988
:104B70000045BDE8F08100BF704700BF00292DE966
:104B8000F00F1D46C0F29D800024002DC0F29480DD
:104B900080460F4694461E46E3BB8A4255D9B2FA78
:104BA00082F747B1C7F1200520FA05F601FA07F1AF
:104BB000BA40B8403143170CB1FBF7F61FFA82FC3C
:104BC00007FB16110CFB06F5030C43EA01439D425B
:104BD00008D9711E9B1880F013819D4240F210810C
:104BE000023E9B18591BB1FBF7F507FB15130CFB95
:104BF00005FC80B240EA03418C4507D96B1E8A1838
:104C000080F00081944540F2FD80023D45EA064176
:104C1000002503E08B420CD9002529460A462B4685
:104C200014B1524263EB430310461946BDE8F00F3E
:104C30007047B3FA83F5002D40F087808B4201D393
:104C40008242EAD800250121E8E712B90126B6FB25
:104C5000F2F2B2FA82F6002E39D18E1A130C1FFA34
:104C600082FC0125B6FBF3F703FB17610CFB07F889
:104C70004FEA104949EA0146B04506D9791EB618EF
:104C800002D2B04500F2D3800F46C8EB0606B6FB51
:104C9000F3F103FB11630CFB01FC80B240EA034318
:104CA0009C4506D94E1E9A1802D2944500F2C28045
:104CB000314641EA0741B1E7E443524263EB430323
:104CC00066E7404261EB41014FF0FF345DE7B240DF
:104CD000C6F1200921FA09F720FA09F901FA06F1CB
:104CE000130CB7FBF3F81FFA82FC03FB18770CFBDD
:104CF00008F549EA01094FEA194141EA0747B0407E
:104D0000BD420AD9BF1808F1FF3680F08E80BD423F
:104D100040F28B80A8F10208BF18791BB1FBF3F5B4
:104D200003FB15170CFB05F61FFA89F949EA074141
:104D30008E4206D96F1E891871D28E426FD9023DFC
:104D400089188E1B45EA08458CE7C5F1200122FA37
:104D500001F306FA05F627FA01F207FA05F720FA39
:104D600001F11E434FEA1649B2FBF9F81FFA86FA21
:104D700009FB18220AFB08FB0F433B0C43EA0242E3
:104D800093450CFA05FC08D9921908F1FF314AD273
:104D9000934548D9A8F102089219CBEB0203B3FB63
:104DA000F9F109FB11320AFB01FABFB247EA0243EB
:104DB0009A4506D94A1E9B1933D29A4531D90239F0
:104DC0009B1941EA08410F0C1FFA8CF808FB07F603
:104DD0008AB24FEA1C4C08FB02F80CFB02620CFB87
:104DE00007FC02EB1842964288BF0CF5803CCAEBE8
:104DF00003030CEB124C63450ED305D000250DE7E1
:104E00000E46EFE61D4601E700FA05F01FFA88F8A6
:104E100008EB0245A842F1D201390025FEE63D46E5
:104E20008FE71146CDE78846B7E7B04675E7023F02
:104E3000B6182AE702393CE72DE9F0071446054683
:104E40000E46002B3DD18A4249D9B2FA82F747B1CA
:104E5000C7F1200120FA01F206FA07F6BC40BD4076
:104E60001643220CB6FBF2F0A1B202FB106601FB66
:104E700000F32F0C47EA0646B34208D9471E3619FD
:104E800080F0FA80B34240F2F78002383619F61A01
:104E9000B6FBF2F302FB136201FB03F1ADB245EA8C
:104EA0000242914207D95E1E121980F0E7809142BA
:104EB00040F2E480023B43EA00400021BDE8F007F5
:104EC00070478B4243D8B3FA83F4002C42D18B4213
:104ED00002D3824200F2E18000210120EEE712B904
:104EE0000127B7FBF2F4B4FA84F2002A40F089807B
:104EF0000A1B230CA7B20121B2FBF3F603FB162217
:104F000007FB06F04FEA154C4CEA0242904207D9E3
:104F1000121906F1FF3C02D2904200F2D0806646A0
:104F2000121AB2FBF3F003FB102307FB00F7ADB23C
:104F300045EA03439F4207D9421E1B1980F0A08017
:104F40009F4240F29D80023840EA0640B6E70021C9
:104F50000846B3E7C4F1200622FA06F703FA04F381
:104F600021FA06F501FA04F120FA06F63B434FEA6E
:104F7000134CB5FBFCF71FFA83F80CFB175508FB25
:104F800007F946EA010A4FEA1A4141EA0545A945EF
:104F900002FA04F204D97E1EED18C0F08180374673
:104FA000C9EB0501B1FBFCF60CFB161508FB06F876
:104FB0001FFA8AFA4AEA0541884503D9751EC918BD
:104FC00074D32E4646EA0746370C1FFA82FC0CFBC8
:104FD00007F5120CB3B20CFB03FC02FB035302FBFC
:104FE00007F203EB1C439D4288BF02F58032C8EBF9
:104FF000010102EB134291424CD343D030460021D1
:105000005CE79440C2F1200521FA05F620FA05F587
:1050100001FA02F1230CB6FBF3FCA7B203FB1C66FA
:1050200007FB0CF829430D0C45EA0646B04500FA8B
:1050300002F508D936190CF1FF303ED2B0453CD903
:10504000ACF1020C3619C8EB0602B2FBF3F003FB1D
:10505000102607FB00F889B241EA0642904506D9BE
:10506000461E121927D2904525D902381219C8EBCD
:10507000020240EA0C413FE7384608E733461AE7A8
:10508000104661E700FA04F01FFA8CFC0CEB0343B6
:105090009842B3D2701E002110E7214620460DE74A
:1050A000A9457FF67CAF023FED1879E7884588D99E
:1050B000023EC91886E73046D9E78446C3E7023E78
:1050C00012192DE7032AF0B431D941EA00039C07F5
:1050D0002ED106680F68151F031D0C1DBE42C5F3B7
:1050E000800C24D1032D2A461FD9BCF1000F08D013
:1050F0001E6825682146184604340433AE4211D098
:1051000015E0214618461C680B68051D0E1D9C42C3
:105110000DD1314628462E680D68043A031D0C1D3A
:10512000AE4204D1043A032AEBD8214618461AB3FA
:1051300003780C78A3420AD1551E0022EB0714D540
:1051400010F8013F11F8014F0122A3420DD0181BA6
:1051500010E010F8013F11F8014FA342F7D110F809
:10516000013F11F8014FA342F1D1AA4202F102021C
:10517000EFD10020F0BC70471046FBE70F2A2DE965
:10518000F00340F2A18041EA00039B0740F09E80BB
:105190000C68A2F1100504604B68AC4643608C6853
:1051A000BCF10F0F8460CC68C5F30015C46000F13A
:1051B000100301F110042BD975B12568ACF1100C66
:1051C0001D6065685D60A5689D60E5681034DD6000
:1051D0001033BCF10F0F1BD9276804F110061F60B4
:1051E000676803F110055F60A768ACF1200C9F6051
:1051F000E768DF6024691C61776806F110046F605E
:10520000B7682033AF60F668BCF10F0FEE60E3D8EB
:10521000A2F1100828F00F0302F00F0403F1100CA4
:10522000032C00EB0C0301EB0C0851D9211F4FEAB2
:105230009109444608EB890C54F8046BC8EB0C0147
:105240000CF1040C1D46644545F8046BC1F3800164
:1052500012D029B154F8041B644545F8041B0BD047
:10526000274657F8041B2E4646F8041B64686C60FA
:105270003C1D351D6445F3D109F1010C4FEA8C0941
:1052800002F0030208EB09014B44D2B10D789A18E1
:10529000DC4303F8015B1419934204F0010410D0BD
:1052A0002CB111F8014F03F8014B934209D04D780E
:1052B0001C4604F8015B8D7802315D70631C9342DB
:1052C000F5D1BDE8F00370470346DEE70346DDE7AE
:1052D00041462246D9E700BFF0B48407034600F0F8
:1052E0008D80541E002A00F08780E507CEB211D4CD
:1052F0001A4602F8016B13461546920710D0621E3B
:10530000002C79D003F8016B14469A071D4607D08C
:10531000013CEDE7034603F8016B9A071D46F7D100
:10532000032C52D9CEB246EA06270F2C47EA074390
:105330002DD9A4F1100217460F2FC2F300162B60CF
:105340006B60AB60EB6005F1100216D93EB1103F07
:10535000136053609360D36010320F2F0DD9203F3C
:1053600002F11006136053609360D36013615361C0
:105370009361D36120320F2FF1D8A4F1100222F0F3
:105380000F0204F00F041032032C15441DD9271FFF
:105390003E462A46032E42F8043BC7F380070DD948
:1053A00027B1043E032E42F8043B07D9174647F8BD
:1053B000043B083E53603A1D032EF7D8231F23F009
:1053C0000302131D04F00304ED18ACB1C9B2EA43A3
:1053D0002C1905F8011BA318A54203F001020BD0FC
:1053E0001AB105F8011BA54206D02B4603F8011B94
:1053F00069705D1CA542F8D1F0BC704705461446A3
:105400008EE700BF0000002000000000436F756EB3
:10541000746572203D203078253038780D0A000000
:1054200052656365697665642025752062797465C7
:10543000733A2027307825303478270A000000009E
:105440006363323533382064656D6F2070726F632B
:10545000657373004104200000000000436F6E7408
:10546000696B692D322E362D313233342D67383148
:105470003532383730000000544920536D61727462
:1054800052463036202B20636332353338454D0089
:10549000204E65743A200000204D41433A20000020
:1054A000205244433A20000052696D6520636F6EBC
:1054B00066696775726564207769746820616464E1
:1054C0007265737320000000253032783A000000C6
:1054D000253032780A00000053656E736F727300D6
:1054E000005520000000000011092000000000000D
:1054F000005520000000000075082000000000009A
:10550000427574746F6E00000055200000000000AA
:10551000DD08200000000000005520000000000011
:10552000A908200000000000005520000000000035
:10553000410820000000000099142000E91120001B
:1055400051132000311420006D1220004D11200055
:10555000BD112000D9112000E11020000D11200004
:10556000636332353338205246206472697665723F
:10557000000000003031323334353637383941429B
:10558000434445460000000030313233343536376D
:1055900038396162636465660000000030580000BD
:1055A000307800002D0000002B000000286E756C84
:1055B0006C29000025000000202020202020202031
:1055C000202020202020202030303030303030305B
:1055D00030303030303030304374696D6572207057
:1055E000726F6365737300004576656E742074692D
:1055F0006D65720053657269616C206472697665CD
:10560000720000000000000043534D410000000004
:1056100008562000C933200055322000F131200007
:105620000132200011322000213220006E756C6C96
:10563000726463002C562000A93520000937200031
:10564000E936200025372000953520000D37200051
:10565000A5352000181000008D372000813720006C
:1056600052696D650000000060562000A9382000D6
:10567000713820003D3C2000913B200000000000DC
:10568000554120005141200002080000214820001F
:105690004D4A2000D94620000080C0E0F0F8FCFE12
:0456A000FF00000007
:1056A400000000004054200015032000000000000A
:1056B40000000000D8542000A506200000000000CF
:1056C400E05420000855200018552000F054200014
:1056D40028552000000000008000000000000000A9
:1056E40060552000A115200000000000691A200068
:1056F4000000000000000000D8552000B92420005C
:105704000000000000000000E85520003D262000B5
:105714000000000000000000F4552000292B2000A8
:10572400000000000C00080094170020A8170020B7
:10573400340002006C180020701800200C000800CF
:105744009C1700200C18002004000800581F00209B
:10575400EC1800203C000200541F0020DC1E002036
:0C576400BA000800E41800200C19002016
:085770000CF4FF7F01000000B2
:020000040027D3
:10FFD400FFFFFFFF0000000000002000FFFFFFFF05
:10FFE400FFFFFFFFFFFFFFFFFFFFFFFFFFFFFFFF1D
:0CFFF400FFFFFFFFFFFFFFFFFFFFFFFF0D
:0400000500200000D7
:00000001FF
