:020000040020DA
:10000000008000202D4E2000714E2000734E2000F5
:10001000754E2000754E2000754E20000000000037
:10002000000000000000000000000000754E2000ED
:10003000754E200000000000754E2000754E200017
:10004000754E2000754E2000754E2000754E200024
:1000500000000000754E2000754E2000754E2000F7
:10006000754E2000000000000000000000000000AD
:100070000000000000000000754E2000000000009D
:100080000000000000000000754E2000754E2000AA
:10009000754E2000754E2000754E2000754E2000D4
:1000A000754E2000754E2000754E2000754E2000C4
:1000B000754E2000754E2000754E2000754E2000B4
:1000C000754E2000754E2000754E2000754E2000A4
:1000D000754E20000000000000000000000000003D
:1000E0000000000000000000000000000000000010
:1000F000754E200000000000754E2000754E200057
:1001000080B500F004F8002000F05AFC01BD2DE994
:10011000F04182B00400207EC00706D400210020F8
:1001200000F0C4FC200000F04CFA94F9155094F94A
:100130001760200000F016FC4643F6B2206810EB72
:1001400046180021200000F021FC070022E0401E9C
:1001500040B241012268895A4904F8D440B26DB2D4
:10016000A8420CD1FFB2F800C01DC0B200907F239E
:10017000FFB2FA00D2B20021002000F0D1FC390019
:10018000C9B2200000F002FC0700761CF6B220681D
:1001900010EB4618207DF6B2864255D2FFB2002FF2
:1001A00052D03900C9B2002000F080FC00233A0090
:1001B000D2B23100C9B2200000F04BF86DB2206815
:1001C00010EB4510804510D1FFB2F800431EDBB2A2
:1001D0007F220021002000F01EFF3B00DBB27F22C7
:1001E0000021002000F02CFD0EE0207E01217A1E6F
:1001F0009140084208D0FFB2F800431EDBB27F22D4
:100200000021002000F035FFB8F800004004B6D50A
:10021000701E9DE73900C9B2002000F047FC207E27
:1002200001217A1E9140084208D0FFB2F800431E17
:10023000DBB27F220021002000F01BFF3900C9B291
:10024000200000F0A3FB0700FFB2002FE2D1BDE8C1
:10025000F3812DE9F04F87B0814614001F00C9B229
:10026000D9F8000010EB411AC9B299F9160009B289
:1002700000B2814201D1012000E000208DF8000091
:1002800000208DF8040001A8049001A8039001A8A3
:100290000290DAF80400002802D0DAF80400049092
:1002A000DAF80800002802D0DAF808000390DAF83B
:1002B0000C00002802D0DAF80C000290029D02988F
:1002C0000590BAF8000010F44076BAF8000010F477
:1002D000E050ADF80200029801A9884203D14FF422
:1002E000E050ADF80200FFB2002F05D1049800F0F5
:1002F000C5FC062101FB00F7039800F0BFFC0621B6
:1003000001FB00F899F9160010F1010F01D001204E
:1003100000E00020062101FB00F9BDF80200B0F565
:10032000806F12D0B0F5006F16D0B0F5406F1AD0C4
:10033000B0F5805F1ED0B0F5A05F22D0B0F5C05FF1
:1003400026D0B0F5E05F30D035E00121286800F01C
:10035000B3FC0621484334E00221286800F0ACFCDD
:10036000062148432DE00321286800F0A5FC062162
:10037000484326E00421286800F09EFC06214843FB
:100380001FE00521286800F097FC0621484318E08B
:10039000286800F0BBF98DF805009DF80510286865
:1003A00000F08AFC062148430BE0029800F066FC4E
:1003B0000621484305E00598006800F068FC062126
:1003C00048435FF0FF31FFB2002F00D0491C5FFAB5
:1003D00088F8B8F1000F00D0491CC0B2002800D046
:1003E000491CFFB25FFA88F818EB0702C0B2821806
:1003F00049B2062303FB012249B211F1010F00D1DA
:100400000021B6B23100B1F5807F03D0B1F5007F95
:1004100003D009E0D2F17E0207E012B2D2F17E01F0
:10042000022291FBF2F200E00222FFB2B918ADF80D
:100430000610BAF8001089041ED5FFB217EB020AA5
:10044000FFB2002F04D15FFA89F9B9F1000F01D092
:100450001AF1060AB6B2B6F5407F04D15FFA88F801
:10046000D8F17E0B28E0C0B210EB0A0BC0B2002816
:1004700022D01BF1060B1FE0FFB217EB020BFFB2FD
:10048000002F04D15FFA89F9B9F1000F01D01BF1F7
:10049000060BB6B2B6F5407F03D1C0B2D0F17E0AEA
:1004A0000AE05FFA88F818EB0B0A5FFA88F8B8F1EF
:1004B000000F01D01AF1060A2300DBB2D2B2049970
:1004C000002000F029FC2300DBB25A46D2B2039987
:1004D000002000F021FC9DF90000002808D0230036
:1004E000DBB2BDF80620D2B287A1002000F014FCD8
:1004F000BDF80200B0F5806F1AD0B0F5006F21D0C2
:10050000B0F5406F28D0B0F5805F2FD0B0F5A05F78
:1005100036D0B0F5C05F3DD0B0F5E05F45D12300E7
:10052000DBB25246D2B20299002000F0F5FB45E062
:10053000E4B200945346DBB201222968002000F0A7
:10054000B9FC3BE0E4B200945346DBB202222968D6
:10055000002000F0AFFC31E0E4B200945346DBB27F
:1005600003222968002000F0A5FC27E0E4B20094F3
:100570005346DBB204222968002000F09BFC1DE0FA
:10058000E4B200945346DBB205222968002000F053
:1005900091FC13E0E4B200945346DBB29DF80520D1
:1005A0002968002000F086FC08E02300DBB25246F8
:1005B000D2B205980168002000F025FC07B0BDE824
:1005C000F08FF0B587B00500280000F05DF804005A
:1005D000E868002801D0ED680EE0686800280AD0BD
:1005E000280000F093FE90F9151049B2006810EB56
:1005F0004110856800E0D14DE4B2D4F180000621BD
:1006000090FBF1F0461EE4B26000D0F180000621BC
:1006100090FBF1F0871E280000F030FBC0B2F6B26C
:10062000B04201D20600FFE7002005E0C0B2415D04
:10063000C0B200AA8154401CC0B2F6B2B042F5D399
:10064000F6B200A800213154FFB2F6B2B74206D389
:100650000023012200A9002000F0AFFB0CE0E4B26F
:10066000D4F17A00F6B2062101FB16020023D2B2C1
:1006700000A9002000F050FB07237F22002100206A
:1006800000F0C9FC07B0F0BD2DE9F843016900296D
:1006900037D0417D0469C9B2006810EB411045684C
:1006A0000126200000F0EAFA0700280000F0E6FA30
:1006B000F6B2D6F18001FFB2062202FB1712B2F1A8
:1006C00006085FFA88F8C0B2062101FB10890023F2
:1006D000D2B22100002000F01FFB00234246D2B21C
:1006E00095A1002000F018FB00234A46D2B2290051
:1006F000002000F011FB0C2000FB0760C01DC0B201
:1007000000E00020BDE8F2837E0000002DE9FC47F8
:1007100004002000002100F0FFFD04D288482100E1
:1007200000F00CFE0400200000F074FE00F094FEC7
:100730000100200000F0C0FE0400200000F040FF97
:100740000022804B00F064FF01F034F88146200065
:1007500000F036FF00227C4B00F05AFF01F02AF82F
:100760000A2101FB00F8200000F02AFF0022774B4D
:1007700000F04EFF01F01EF8642101FB00F520009F
:1007800000F01EFF0022724B00F042FF01F012F851
:100790004FF47A7101FB00F6200000F011FF0022F7
:1007A0006C4B00F035FF01F005F842F2107101FBCF
:1007B00000F7200000F004FF0022674B00F028FF44
:1007C00000F0F8FF654901FB00FA200000F0F8FE98
:1007D00000225C4B00F01CFFCDE90001484600F010
:1007E0003BFE00F0EDFE02000B00DDE9000101F030
:1007F00007F801225A4B01F0C3F801D819F1010999
:10080000200000F0DDFE00224F4B00F001FFCDE99B
:100810000001404600F020FE00F0D2FE02000B0076
:10082000DDE9000100F0ECFF01224D4B01F0A8F8DA
:1008300001D818F10108200000F0C2FE0022434B4D
:1008400000F0E6FECDE90001280000F005FE00F012
:10085000B7FE02000B00DDE9000100F0D1FF01222C
:100860003F4B01F08DF800D86D1C200000F0A8FE71
:100870000022374B00F0CCFECDE90001300000F043
:10088000EBFD00F09DFE02000B00DDE9000100F031
:10089000B7FF0122324B01F073F800D8761C20001C
:1008A00000F08EFE00222B4B00F0B2FECDE90001DD
:1008B000380000F0D1FD00F083FE02000B00DDE9FE
:1008C000000100F09DFF0122254B01F059F800D8EE
:1008D0007F1C200000F074FE00221F4B00F098FEE9
:1008E000CDE90001504600F0B7FD00F069FE0200BE
:1008F0000B00DDE9000100F083FF0122184B01F03D
:100900003FF801D81AF1010AC14501D0052010E0D5
:10091000A84501D004200CE0B54201D0032008E036
:10092000BE4201D0022004E0574501D1002000E082
:100930000120BDE8F68700002F0000006054200071
:10094000000080BF006AF8400088C34000408F402C
:1009500000005940000024400000F03FA086010044
:100960000000E03F10B40721027E012007E00123D0
:1009700083401400E4B21C4200D0491E401CC0B2A7
:100980000828F4DB0800C0B210BC7047007E491C88
:10099000C9B2082901DB002007E001228A400300D8
:1009A000DBB21342F3D10800C0B2704710B50C009F
:1009B000FFF7D8FFE4B2C0B294FBF0F0C0B210BDB4
:1009C00038B50400002C01D1DFF80C4700250CE0FD
:1009D0002900C9B2002000F03BF88021EDB2802050
:1009E00000FB054001F02FF86D1CEDB2082DEFDB88
:1009F00031BD2DE9F04706000C001D000898002EBF
:100A000001D1DFF8D466111B4F1CB0EB05085FF075
:100A1000000915E019EB050A5146C9B22000C0B221
:100A200000F016F8FFB2390089B2E4B25FFA8AFA30
:100A3000802000FB0A60201801F005F819F1010977
:100A40005FFA88F85FFA89F9C845E3D2BDE8F08714
:100A500010B582B000AADFF884361C6814609DF8D7
:100A6000002089188DF800109DF8021010F00F0278
:100A700051188DF802109DF80110C0B211EB101042
:100A80008DF80100032100A800F0BFFF13BD00286E
:100A900001D1DFF84406002103E089B200220A54A4
:100AA000491C89B2B1F5806FF7DB704710B400289C
:100AB00001D1DFF82406002207E0C9B28023D2B2B8
:100AC00003FB012300241C54521CD2B2802AF4DB05
:100AD00010BC7047F0B5059C002801D1DFF8F8057F
:100AE000551AE61A00240DE0BFB2D2B212EB070C81
:100AF0005FF0000E0CF800E0521CEDB2D2B295424D
:100B0000F2D2641CF6B2E4B2A64208D3DBB2E4B27D
:100B1000E2188027C9B207FB02170022EDE7F0BDFB
:100B20002DE9F041002801D1DFF8AC05D2B208244C
:100B300092FBF4F5069CE4B2082694FBF6F64FF01F
:100B4000FF0C5FF0010E00270DE0FFB2D2B2EDB254
:100B5000B2EBC508474505DABCEB0E0C5FFA8EFE1A
:100B60005FEA4E0E7F1CFFB2082FEEDB00225FF023
:100B7000010E00270DE0E4B2F6B2B4EBC608FFB2F6
:100B8000B84505DB1EEB02025FFA8EFE5FEA4E0EF1
:100B90007F1CFFB2082FEEDBEDB2F6B2B54201D1F9
:100BA00092F0FF020F0011E0EDB28024FFB204FBCF
:100BB0000574EDB25FF0800EFFB20EFB057E1EF8ED
:100BC00000E09CEA0E0E04F800E07F1CDBB2FFB2EE
:100BD000BB42E9D26F1C16E0FFB28025E4B205FBF0
:100BE0000745FFB25FF0800CE4B20CFB074C1CF829
:100BF00000C09CF0FF0C05F800C0641CDBB2E4B23E
:100C0000A342E9D27F1CF6B2741EFFB2BC4201DBE4
:100C10000C00F3E70F000DE0F6B28021FFB201FBFC
:100C20000671F6B28024FFB204FB0674245C5440C3
:100C30000C547F1CDBB2FFB2BB42EDD2BDE8F081A9
:100C400030B4DBB28024C9B204FB0313521A00286B
:100C500001D1DFF8840400210AE09BB2C9B2CC18AC
:100C6000245C94F0FF049BB2C9B2CD182C54491CEB
:100C7000D2B2C9B28A42F0D230BC7047002100E043
:100C8000491C0A5C002AFBD10800C0B27047002151
:100C9000002801D101200EE0002808D55FF0FF32C6
:100CA0005043491C03E00A2290FBF2F0491C012842
:100CB000F9DA0800C0B27047F8B504000D0000274B
:100CC0005FF03F4000260AE000F07AFCDFF81024D5
:100CD000DFF8103400F09CFC00F0F4FE761CF6B255
:100CE000EDB2AE42F0D3210000F034FF06D87F1CF5
:100CF000DFF8F403210000F021FB0400200000F0E5
:100D000089FBFFF7C4FFC719EDB2002D00D07F1C8F
:100D1000EF193800C0B2F2BDF8B505000C0016009E
:100D20001F002000FFF7AAFFFFB28021F6B201FBEF
:100D30000761002D01D1DFF8A05300221DE089B228
:100D4000D2B2062707FB0217DBB2DF19B6B2DBB25D
:100D500013EB060CDFF894E31CF80EC007F805C08F
:100D60005B1CDBB2052BEADB89B2D2B2062303FBA4
:100D700002135B1900265E71521CD2B2C0B28242CD
:100D80001AD2D2B2135D202B0ED10023DBB2062B78
:100D9000F2DA89B2D2B2062606FB0216DBB29E193F
:100DA000002777555B1CF1E7D2B2135D213B052686
:100DB00006FB03F60023D4E7F1BDF8B504000D00EF
:100DC00017001E002800FFF759FFFFB2012F02D0C5
:100DD000022F09D00EE0C0B206214843022190FB49
:100DE000F1F0D0F1400206E0C0B206214843D0F154
:100DF000800200E000223300DBB2D2B229002000E2
:100E0000FFF78AFFF1BDF8B504000E00DBB28020C9
:100E1000D2B200FB0325002C01D1DFF8BC42002E2A
:100E200017D500200AE0ADB2C0B24119C0B2DFF858
:100E3000BC22821892F83C200A55401CC0B20528FA
:100E4000F1DBADB2281900214171AD1D5FF0FF301B
:100E500046433000FFF71BFF411E1BE0ADB249B215
:100E6000062606FB0156C0B28619C0B2C718DFF8C5
:100E70007CC217F80C703755401CC0B20528EDDB5A
:100E8000ADB249B2062000FB0150001900234371A6
:100E90001600491E49B200290BD40A2096FBF0F235
:100EA0000A2000FB12600F30052303FB00F3002033
:100EB000E3E7F1BD2DE9F04784B00C0090461D003A
:100EC000814600265FFA88F8B8F10B0F80F2A18006
:100ED000B9F1000F01D1DFF800925FF03F40002729
:100EE0000AE000F06DFBDFF8F821DFF8F83100F0E0
:100EF0008FFB00F0E7FD7F1CFFB25FFA88F84745E3
:100F0000EFD3210000F026FE06D8DFF8DC01210037
:100F100000F014FA04000126200000F07BFA82465B
:100F2000002711E0DFF8C801210000F007FA0400F3
:100F3000200000F06FFA0A2190FBF1F201FB120091
:100F4000FFB200A978547F1CFFB25FFA88F818F14D
:100F500001008742E6DB5FFA88F800A818F8000075
:100F600005281EDB0120B8F1010101E00020491E27
:100F700049B2002910D449B200AA8A5C821849B249
:100F800000ABCA5449B200AA8A5C0A2AEED149B21F
:100F900000AA00238B54EAE7C0B2012801D11AF15C
:100FA000010A0C9CF6B2012E08D12300DBB22A0004
:100FB000D2B247A14846FFF7AFFEAD1D2300DBB21A
:100FC0002A00D2B251464846FFF71DFFEDB2504607
:100FD000FFF75DFE062101FB00552300DBB22A006E
:100FE000D2B23CA14846FFF797FEAD1D00270BE0AB
:100FF0002300DBB22A00D2B2FFB200A8395C484617
:10100000FFF701FFAD1D7F1CFFB25FFA88F847456F
:10101000EED3BDE8FF8770B40400DBB2082093FB79
:10102000F0F5DBB2082693FBF6F000FB1630012347
:101030008340002C01D1DFF8A040D2B2C9B28A426D
:1010400002D20800110002000DE0EDB28020C9B20A
:1010500000FB0510EDB28026C9B206FB0516365D11
:101060001E430655491CD2B2C9B28A42EDD270BCA9
:10107000704770B40400DBB2082093FBF0F5DBB2DC
:10108000082693FBF6F000FB163001238340002C6A
:1010900001D1DFF84440D2B2C9B28A4202D208007C
:1010A000110002000DE0EDB28020C9B200FB051076
:1010B000EDB28026C9B206FB0516365D9E43065585
:1010C000491CD2B2C9B28A42EDD270BC704700004E
:1010D0002D0000002E000000F4410020CC54200020
:1010E0009A9999999999B93F000080BFE8442000E6
:1010F00000002041F8B5040094F91500461E0025B3
:1011000000E0761E76B2002E0AD4EDB2002D07D193
:1011100076B270012168405A0004F2D40125F1E74B
:101120003100C9B22000FFF741FC0700617D2000BB
:10113000FFF73CFC94F91710EDB2002D0AD07FB2F6
:1011400049B28F4206D140B249B2884202D1667597
:1011500001201AE0EDB2002D0ED07FB249B24A1E36
:10116000974209D140B249B2884205DB6675E07DFD
:10117000401EE075012008E0E07D002804D0E07DFD
:10118000401EE075012000E00020F2BD2DE9F8438B
:101190000400607D461C002500E0761C207DF6B230
:1011A00086420AD2EDB2002D07D1F6B27001216855
:1011B000405A0004F1D40125F0E73100C9B2200003
:1011C000FFF7F4FB8146617D2000FFF7EFFB07008E
:1011D00094F81780207D002806D0207D411EC9B2DA
:1011E0002000FFF7E3FB00E00020EDB2002D0DD062
:1011F0005FFA89F95FFA88F8C14507D1FFB25FFA53
:1012000088F8474502D1667501201FE0EDB2002D38
:1012100012D05FFA89F95FFA88F818F1010189455F
:101220000AD15FFA88F8FFB2B84505D36675E07D4C
:10123000401CE075012009E0E17DC0B2814204D28A
:10124000E07D401CE075012000E00020BDE8F28355
:1012500010B504002000FFF74DFF0028FAD110BDA3
:1012600070B582B0040094F915502900C9B220006D
:10127000FFF79CFB40B2E17D00B209B2884224D165
:101280006DB2206810EB451081696DB2206810EBDB
:101290004510C06900906DB2206810EB45100669DA
:1012A00094F91600002800D4A5750800002805D080
:1012B00000A88847002801D0200007E0002E02D0B7
:1012C0007460300002E0200000E0200076BD10B520
:1012D00004006068002817D094F9160010F1010F7F
:1012E00003D12000FFF7B4FF0CE094F9160010F1D1
:1012F000020F07D0A07D6075A17DC9B22000FFF765
:1013000055FBE075606800E0200010BD00E040681B
:1013100041680029FBD170474FF0807C1CEB400FE7
:1013200094BF1CEB410F05E040EA010C5FEA4C0C56
:1013300001D28842704718BF81427047FF2212EAEB
:10134000D05C1DBF12EAD153944593422BE09C44DC
:10135000D30780EA01021A4043EA002043EA012150
:10136000A1FB0030410038BF40007CF17F010BDB66
:10137000FE294ADA5B0842EAC15153EA006373F17D
:10138000004C51EB10207047D1F1080CDCF120012A
:101390002FDB5B0810FA01F10B4373F1004120FAD7
:1013A0000CF05041704794451CBF02EAD153934260
:1013B00080EA010202F000421DD0400019D049002D
:1013C00017D05BB9634514D00902B1FA81F3994093
:1013D000BCEB030CC00140F00040C1E70002B0FAD2
:1013E00080FC10FA0CF0B3EB0C0CC90141F0004189
:1013F000B6E71000704740000AD0490008D010F14D
:10140000807F94BF11F1807F02E042F0FF4070477F
:10141000D04370474100090E7F3915D4D1F11F0127
:1014200014D4400007D2C00140F00040C84048BF7B
:101430006FF000407047C00140F00040C8404CBF12
:101440004FF00040404270470020704700424FF08C
:10145000004058BFC0437047002840F10980F4465F
:10146000404200F005F850F000406047002800BFFF
:101470000AD0B0FA80F18840D1F19D01C905020679
:1014800072F1004241EB1020704710B450F8041B79
:1014900081B102681218001D50F8043BDC0744BFFC
:1014A000A9F10104E31852F8044B43F8044B091F57
:1014B000F9D1EBE710BC704790EA010F44BF81F00F
:1014C000004100F059BB00BF431A4FF000423EBF3D
:1014D0005340C01AC91800BFD3095FEAD05C13EBB0
:1014E000400F34BFB3EB410F40E07CEBD1530CD342
:1014F00042EA012122D8D1EB402009D3400A28BF7B
:101500005FEA500140EBCC507047401A15D04002C2
:10151000B0FA80F2521C9040400A4FEA3C23B3EBF1
:10152000026384BF00EB730007E040F400001A166A
:10153000DB07C2F10102D04018437047182BFCDCD6
:1015400031FA03F202FA03F3591A38BF42F00102EA
:10155000D2EB40203CBF4000ACF1010C5FEACC5C18
:10156000C20572F100414CEB5020704713EB400F65
:101570000FD24B0009D0ACEBD153022B03DB490255
:10158000172BDDDD70479143401A4300D5D1002071
:10159000704713EB410FD0D36FF00000704750F845
:1015A000041B61B150F8042BD30744BFA9F1010318
:1015B0009A18002342F8043B091FFAD1EFE770475D
:1015C0005FF0FF0C1CEAD05114BF614506E0C1106A
:1015D000400721F0E04101F16051704779B900F016
:1015E000004100020AD0B0FA80FC00FA0CF001F1D0
:1015F0006051A1EB0C5101EBD02140057047410235
:101600000CBF40F4E0016FF0000100207047310092
:10161000B0B581EA030C0CF0004C40F2FF7515EAFE
:1016200011541DBF15EA1357AC42AF4239E0E4191B
:1016300023EA455343F48013C90241F0004141EAD3
:10164000505EC7021100A7FB020200284FF0000005
:10165000EEFB01204FF00001E3FB072118BF42F031
:101660000102401800214941E3FB0E01A4F580640A
:101670000F0302D252004041494154F101046CDD94
:10168000470872F1004250F1000051EB0451A1F5FE
:1016900080115CBF41EA0C01B0BD4CEA055100204D
:1016A000B0BD05EA1357AC4214BFAF4241E050EA67
:1016B000410E1CBF52EA430E02E061460020B0BD5D
:1016C00024423C441BD15FEA070EF6D0090302BF57
:1016D00001460020AEF1140EB1FA81F7AEEB07041B
:1016E00001FA07FE0C37C7F1200100FA07F7C840DE
:1016F0004EEA000E23EA455343F48013A2E733F089
:101700000043B3FA83F704BFB2FA82FE77440B3F7B
:10171000E41BB7F1200E2FBF02FA0EF3BB40C7F156
:10172000200E22FA0EFE38BF43EA0E03BA40641CB4
:1017300082E750EA410E14BF52EA430E6FF00001F7
:101740004FF4001717EB430F8ABF194617EB410FF1
:10175000B5E74CEA05510020B0BDD4F10104B4F165
:1017600020070FDAC4F12007520828BF42F0010217
:1017700010FA07F501FA07F7E1BF2A43E0403843C2
:10178000E1400FE0352C98DCC7F1200452EA40021A
:1017900020FA07F218BF42F0010231FA07F0A14027
:1017A0000A43002172F1004250F1000051EB0C019C
:1017B000B0BD3200F446400D40EAC120490006D2D7
:1017C00000F00EF8004248BF6FF00040604700F0A4
:1017D00007F84FF0004188428CBF084640426047FE
:1017E00040F00040490DA1F58061491C05D4D1F1BC
:1017F0001F0154BFC840C01770474FF0000070472A
:1018000070B44FF0004591EA030F44BF6B4000F005
:10181000EDB900BF841A71EB030604D26E40001BC1
:10182000B141121973414FF4001C1CEB410F34BF3E
:101830007CEB430684E00C0DA4EB1356362E7DDCC6
:10184000012E43DC45EAC32343EA525312BFD202BE
:1018500092025B08240545EAC12141EA5051D2EBCE
:10186000C020994125D407D1B0FA80F610FA06F1CC
:1018700064D00020203608E0B1FA81F6B140C6F10C
:10188000200220FA02F21143B0404FEAF474B4EBA4
:10189000465434F001064FEA74040AD8D6F500160F
:1018A000760D04F00044F04061FA06F25040F14039
:1018B0004840C00A40EA415021F0004128BF5FEA99
:1018C000500550F1000044EBD12137E045EAC32335
:1018D000DB0A45EAC121C90AB6F120050EDD42EA5C
:1018E0000242120CC5F1200603FA06F6EB4042EA6A
:1018F00006056D42984161F100010DE062FA06F5BE
:10190000F240554063FA06FC82EA0C02F3405A406A
:101910006D42904161EB030111F4801F05D1641EFB
:10192000620502D06D004041494121F48011430815
:1019300075F1004350F1000041EB045170BC704759
:101940001CEB410F15D223F0004352EA43060BD0A3
:101950004FEA4C0CBCEB410F04D80C0D661E342E24
:10196000B7DDEBE7801A994150EA410608BF002134
:10197000E4E708BF1CEB430F28BF6FF00001DDE771
:101980004FF4001C1CEB410F94BF1CEB430F09E00C
:1019900041EA030C50EA4C0C52EA0C0C03D28B4285
:1019A00008BF8242704714BF99429042704733008B
:1019B00010B500F06BFA24242100C9B23E4800F0B3
:1019C0005BFB2200D2B22100C9B23B4800F03FFBD2
:1019D0000821394800F050FB00220821364800F069
:1019E00036FB00F0A2FB0A21B0FBF1F00321B0FBB3
:1019F000F1F000F0E9FB082208212F4800F027FB56
:101A000011212E4800F001F810BD38B504000D007A
:101A10002B4800F048FC0028FAD10022202126485B
:101A200000F015FB00220421234800F010FBEDB26A
:101A3000290089B2200000F023F8202220211E482E
:101A400000F005FB31BD38B504000D001C4800F066
:101A50002AFC0028FAD100222021174800F0F7FACA
:101A600004220421144800F0F2FA290089B220006F
:101A700000F006F8202220210F4800F0E8FA31BDDE
:101A800038B504000D0004E021780D4800F0FDFB9E
:101A9000641C2800451E80B20028F5D1084800F0DB
:101AA00002FC0028FAD100A9054800F0F3FB002849
:101AB000F9D131BD0000000000A00D40845020008D
:101AC000008000404FEAF17CBCF1E04C2CBFBCF53B
:101AD000001F11E05FEA4C0C34BFBCF17F5F2EE0C9
:101AE0005FEA9C0C4FEA0C1C4FEA3C0CC10071F100
:101AF00000414CEB50707047C90241EA5051C0029E
:101B000018BF41F0010141F000414FEA6C50C0F1B3
:101B10000900212810D240EACC7CCCF1200C11FA2B
:101B20000CF070F10040CCF1200C21FA0CF00CF01C
:101B3000004C40EB0C0070474FEACC7070474900F6
:101B400011F5001F04D84FEACC10FF30C0057047D4
:101B5000C81770474FF0807C1CEB400F94BF1CEB04
:101B6000410F05E040EA010C5FEA4C0C01D28142D2
:101B7000704718BF88427047421A3CBF801A8918C4
:101B80004FF0004CC0F3C752FF2A24D0C1F3C75313
:101B900013B3D21AD2F1190327DD4CEA01214CFA12
:101BA00003F321EA0303D140C20D4CEA00204018A0
:101BB00034BF20EA0C004CEA5000D20553EA00631F
:101BC00073EB0C0C52EB1020420012F1807F38BFF7
:101BD0007047C00DC0057047490212BF9A4200EB22
:101BE0005120F8E7D2F11703D9D57047841A71EB69
:101BF000030603D2001BB141121973414FF4001CBC
:101C00001CEB410F34BF7CEB430443E00C0DA4EB11
:101C10001356352E50DC45EAC323DB0A45EAC121C1
:101C2000C912B6F120050DDD63FA05F6EB4086EA30
:101C30000305124218BF45F00105C01851F100011B
:101C40000CD213E062FA06F5F2405540F3415A40D7
:101C5000B340F3405A408018594107D349085FEA1E
:101C600030005FEA350528BF45F0010501F5801118
:101C7000420875F1004250F1000041EB045170BC84
:101C80004FF4001C1CEB410F38BF70470020090DBA
:101C9000090570471CEB410F10D252EA43060BD0E6
:101CA000BCEB410F05D80C0DAB43661E342EB5DDE1
:101CB00002E0AB438018594170BC704770BC70475C
:101CC00038B5040000F002FB05008248844212D0BF
:101CD0008148844211D08148844210D08048844297
:101CE0000FD0804884420ED07F4884420DD07F4878
:101CF00084420CD00DE007240CE006240AE0052401
:101D000008E0042406E0032404E0022402E00124A5
:101D100000E0002422000021002000F0D5F920007E
:101D200000F026FA0F21724800F0A6F900220F21D8
:101D30006F4800F08CF9F0216D4800F08DF9042215
:101D4000F0216B4800F06FFC08216A4800F084F92C
:101D500004220821674800F066FC1021664800F064
:101D60008BF900221021644800F071F920216248AB
:101D700000F082F9202220215F4800F068F901215B
:101D80005E4800F079F9012201215C4800F05FF91A
:101D900010215A4800F070F900221021574800F035
:101DA00056F92021554800F067F920222021534898
:101DB00000F04DF980214F4800F05EF900228021AB
:101DC0004C4800F044F903214A4800F045F9042248
:101DD0000321484800F027FC0121474800F03CF966
:101DE00004220121444800F01EFC0821434800F071
:101DF00033F904220821414800F015FCEDB2002D12
:101E000001D100F059FA31BD10B582B004004FF491
:101E1000807000F0DDF93A4800F032FA01213848CC
:101E200000F047FA04220421324800F02BFB032281
:101E30001021304800F026FB324A20212D4800F0C6
:101E40005BFB34212B4800F027F9200000F00AF852
:101E50002B4800F010FA00A9294800F01BFA0028CE
:101E6000F9D113BD1CB50400254800F009FA00F0B3
:101E700088F90821019100940023032201002048E1
:101E800000F0D2F91E4800F0F6F913BD80B51E48E7
:101E90000078401C1C49087010221021164800F0E0
:101EA000D6F801BD38B50D4C012509E000220F21FF
:101EB0000F4800F0CCF8200000F086F995F00105FD
:101EC000EDB2002DF2D00F220F21094800F0BFF82B
:101ED000F1E7000090D0030020A1070040420F006E
:101EE00080841E0000093D0000127A000024F400E6
:101EF00000B00D4000900D4000A00D4000C00D400E
:101F00000080004010410D4080480020DFF8A811FB
:101F100088420CD0DFF8A41188420AD0DFF8A01163
:101F2000884208D0DFF89C11884206D007E01020D4
:101F300070471120FCE71220FAE71320F8E7002091
:101F4000F6E710B4D30705D510F580631B68C9B256
:101F50000B4304E010F580631B68C9B28B4310F596
:101F600080642360920705D510F584621268C9B2B7
:101F7000114305E010F584621268C9B232EA01012A
:101F800010F58460016010BC704710B4D30705D50C
:101F900010F581631B68C9B20B4304E010F581633F
:101FA0001B68C9B28B4310F581642360930704D585
:101FB000D0F80434C9B20B4303E0D0F80434C9B2FA
:101FC0008B43C0F80434520704D5D0F80C24C9B2AE
:101FD000114304E0D0F80C24C9B232EA0101C0F880
:101FE0000C1410BC704710F582621268C9B211431C
:101FF00010F582600160704710F582621268C9B204
:1020000032EA010110F5826001607047C9B200290F
:1020100003D010F58360006801E0D0F81404704725
:10202000C9B2C0F81C14704738B504000D00200078
:10203000FFF76CFF04002900200000F051F9200098
:1020400000F083F931BDC9B250F821007047C9B220
:10205000D2B240F82120704738B504000D000022AC
:102060002900C9B22000FFF76CFF00222900C9B285
:10207000200000F0D8FA31BD38B504000D0001226F
:102080002900C9B22000FFF75CFF00222900C9B275
:10209000200000F0C8FA31BD38B504000D0002225E
:1020A0002900C9B22000FFF74CFF00222900C9B265
:1020B000200000F0B8FA31BD00900D4000A00D40A6
:1020C00000B00D4000C00D4038B5C9B2002905D19F
:1020D000494B1B6853F40013474C2360464B1B6865
:1020E000464C2340C0B2002801D153F08073C9B2DE
:1020F000002902D05FF4803400E00024234313431E
:102100003D4803603E480068002505E0102000F0CF
:102110005BF83B4800686D1C10F48030844203D0AB
:102120004FF6FF708542F1D331BD3548006810F09D
:102130000701002000290BD002290DD00AD3042961
:102140000ED00BD306290FD00CD307290ED00EE0EA
:102150002C480CE02C480AE02C4808E02C4806E00B
:102160002C4804E02C4802E02C4800E02C48704742
:102170002149096831F4E06151EA00211E480160FB
:1021800070471F480068C0F30221002000290BD0CF
:1021900002290DD00AD304290ED00BD306290FD063
:1021A0000CD307290ED00EE016480CE016480AE0C2
:1021B000164808E0164806E0164804E0164802E013
:1021C000164800E0164870470138FDD17047704747
:1021D000C0F30321134A52F82110C0F30322114B1C
:1021E00053F822201268012310F00F0013FA00F0B8
:1021F000104308607047000000200D40F8FFFEFE0D
:1022000004200D400048E8010024F40000127A0088
:1022100000093D0080841E0040420F0020A10700FD
:1022200090D003003050200070B4039D049C022B1A
:1022300001D1082600E00026002B01D1002300E098
:1022400004231E434660B1FBF5F100239B1CB1FB48
:10225000F3F56D1EFF2DF9D8036112F0030189011A
:1022600012F0300251EA05211143621E52EA0106C2
:10227000066070BC7047416851F0020141607047D0
:10228000416831F0020141607047C2689207FCD595
:1022900081607047C268520703D5806808600120DA
:1022A00000E000207047C06810F010000009C0B2C4
:1022B0007047C0F8C81F704780B500F005FA0028C5
:1022C00001D0012000E00020C0B202BD80B500F0C6
:1022D000F7F9002801D0012000E00020C0B202BDC3
:1022E00030B45F4A12685F4B9A420ED05C4A136862
:1022F000002205E053F822405A4D45F82240521C76
:10230000402AF7D3564A574B1360564A42F82010DA
:1023100030BC704710B48208534B53F82220126827
:10232000FF2310F00304E4B2E400A3409A43C9B2CF
:1023300010F00303DBB2DB0099400A4380084A49EE
:1023400051F82000026010BC7047042806D14748AD
:10235000006850F480304549086029E0052806D11E
:102360004248006850F400304049086020E00628E8
:1023700006D13E48006850F480203C49086017E0D0
:102380000F2806D13A48006850F00200384908602A
:102390000EE010280CD3B0F110014909354A52F86B
:1023A00021100122103810F01F0012FA00F008600E
:1023B0007047042806D12D48006830F480302B493E
:1023C000086029E0052806D12848006830F400306C
:1023D0002649086020E0062806D12448006830F429
:1023E00080202249086017E00F2806D120480068A5
:1023F00030F002001E4908600EE010280CD3B0F146
:10240000100149091C4A52F821100122103810F01D
:102410001F0012FA00F0086070470E2806D1174816
:10242000006850F000601549086017E00F2806D1D9
:102430001248006850F00070104908600EE0102843
:102440000CD3B0F1100149090D4A52F821100122B4
:10245000103810F01F0012FA00F0086070470000FA
:1024600008ED00E000400020C84B200024ED00E013
:1024700010E000E0485020005C50200004ED00E037
:102480007050200030B4DFF80032002403E0DFF8A1
:10249000F8311A60641C082C2CD2C9B251FA04F32A
:1024A00013F00103002BF5D00300DFF8E051AB423D
:1024B0000CD0DFF8DC51AB420DD0DFF8D851AB4285
:1024C0000ED0DFF8D451AB420FD0E0E7DFF8CC31CB
:1024D00053F82430DDE7DFF8C83153F82430D8E76B
:1024E000DFF8C03153F82430D3E7DFF8BC3153F8BC
:1024F0002430CEE730BC704710B40023634CA042B8
:1025000009D0634CA04227D0624CA04245D0624C17
:10251000A04263D083E0C9B2012900D10023C9B22F
:10252000022900D10123C9B2042900D10223C9B272
:10253000082900D10323C9B2102900D10423C9B24C
:10254000202900D10523C9B2402900D10623C9B2F0
:10255000802900D1072363E0C9B2012900D10823F3
:10256000C9B2022900D10923C9B2042900D10A2322
:10257000C9B2082900D10B23C9B2102900D10C23FC
:10258000C9B2202900D10D23C9B2402900D10E23A0
:10259000C9B2802900D10F2342E0C9B2012900D17C
:1025A0001023C9B2022900D11123C9B2042900D1D4
:1025B0001223C9B2082900D11323C9B2102900D1AE
:1025C0001423C9B2202900D11523C9B2402900D152
:1025D0001623C9B2802900D1172321E0C9B20129ED
:1025E00000D11823C9B2022900D11923C9B2042984
:1025F00000D11A23C9B2082900D11B23C9B210295E
:1026000000D11C23C9B2202900D11D23C9B2402901
:1026100000D11E23C9B2802900D11F2300E000236E
:10262000136010BC704730B4174B002402E01F4BFE
:102630001A60641C082C24D2C9B251FA04F313F0B6
:102640000103002BF5D00300104DAB4209D0104D13
:10265000AB420AD00F4DAB420BD00F4DAB420CD06A
:10266000E5E7134B53F82430E2E7124B53F82430DC
:10267000DEE7114B53F82430DAE7104B53F82430DF
:10268000D6E730BC7047000000400D4000900D4080
:1026900000A00D4000B00D4000C00D40984F20003C
:1026A000B84F2000D84F2000F84F200080400D4048
:1026B000184F2000384F2000584F2000784F20003E
:1026C000EFF3108072B67047EFF3108062B6704778
:1026D00038B50025DFF8E446DFF8E406FFF7F0FA46
:1026E000012000F0ABFBF82000F096FCDFF8D406E8
:1026F000FFF78AFBFFF75CF9DFF8CC0600210170D9
:10270000DFF8C40600214170DFF8BC061A21817091
:10271000DFF8B4060021C170DFF8AC06DFF8AC16B4
:102720004160DFF8A40614218160DFF89C062A21AD
:10273000017300F054FDDFF8980642F20701418072
:10274000DFF88C060021417100F017FA00F04AFC16
:102750000028FBD02000FDF7D3FCF82000F0BBFBE5
:1027600005002820054204D02000FEF779FD040072
:1027700011E0E80604D52000FEF7A9FD04000AE0F8
:10278000680603D52000FEF7B5FC04E0280602D554
:102790002000FEF7FBFC0020009000984CF2503126
:1027A0008842D7D20098401C0090F6E7F8B5002484
:1027B00000F0FCF9DFF8180642F238510180DFF82A
:1027C0001006DFF8041689780171DFF8040600F0BE
:1027D000B1FD01281FD10720009001237F22002195
:1027E0000020FEF777F903230122DFF8E815002027
:1027F000FEF792FA04230122DFF8DC150020FEF731
:102800008BFA0420009003237F2200210020FEF792
:10281000F0F8FFF747FB00F044FEDFF8AC050021BD
:102820000170DFF8A40500214170DFF89C05C07835
:1028300000F0A5FEDFF8A40500210160002005E0FE
:10284000C0B2DFF8981541180871401CC0B2582872
:10285000F6D3DFF87405806800F081F948E05C2267
:10286000DFF878154BF6EF6000F08FFDDFF86C05B0
:102870000068401CDFF864150860641CDFF8480538
:1028800003214170012000F0C5FF032000900223C6
:102890007F2256210020FEF71DF902235C22210031
:1028A0000020FEF7B0FA032000905C2302221500FE
:1028B0001E002000FEF7DAFD0700DFF80C05406877
:1028C000FEF7D4FD0100380000F0B8FFDFF8101566
:1028D000FEF734FD010033002A000020FEF7EAFA7B
:1028E0000320009002237F2256210020FEF781F86A
:1028F00000F078FB0721084209D1DFF8CC044078CA
:102900000128F5D1DFF8C00440688442A7D300F065
:10291000E1F90020F2BD70B596B002A8102101F0D7
:102920000BF806A8402101F007F8002400F085F913
:10293000DFF89C044BF6EF610180DFF89404DFF8C8
:10294000881489780171DFF8880400F0F3FC01280D
:102950001FD10720009001237F2200210020FEF7D5
:10296000B9F803230122DFF86C140020FEF7D4F934
:1029700004230122DFF860140020FEF7CDF90420C3
:10298000009003237F2200210020FEF732F8FFF79A
:1029900089FADFF83404007B2A2804D0DFF8280401
:1029A000007B00F02FFEDFF8200401210170DFF82A
:1029B000180402214170102000F0D1F800F06AFDE7
:1029C00059E0DFF820040068401C029000200390CA
:1029D000002004900398401C0390082000F07BFA2C
:1029E000000703D50120039000200490049864217F
:1029F0004843FEF73BFD0600039804990818FEF7CC
:102A000035FD0100300000F019FF06003000FEF730
:102A100001FDDFF8D4130870DFF8AC030321417027
:102A20000520009002237F225C210020FEF752F84F
:102A3000022000905C23022231000020FEF73AFAC7
:102A400003235C2203990020FEF7DDF904235C22B6
:102A500004990020FEF7D7F905235C222DB2290046
:102A60000020FEF7D0F90520009002237F225C2190
:102A70000020FDF7BEFF00F0D9FC002809D1F020AE
:102A800000F029FAC006F6D500F024F9002016B0AF
:102A900070BD01AA6721DFF84C0300F0CAFC0028D2
:102AA000E9D0BDF81400E4B206A931F81410401AB8
:102AB000ADF81400E4B206A8BDF8041020F8141014
:102AC000BDF81400BDF804100818ADF81400641C1B
:102AD0002000C0B2202800D10024BDF9140020211C
:102AE00090FBF1F50298BF490968884203D102982A
:102AF000401C02906EE70298BA4909688842BFF408
:102B000060AF0498B749096808180299401A049000
:102B1000B4480068401C02905CE780B5AA48007881
:102B2000012818D1A848407803280DD1A6480221D1
:102B30004170AE4800210170AC480078401CAB49A0
:102B4000087000F0E0F809E0A84800780828F3D100
:102B500000F023F902E09C480121417001BD80B5DD
:102B60004FF40041B1FBF0F080B200F0E9FEA04864
:102B700000F0F5FE00F007FF01BD80B59D48FDF7B0
:102B80001FFF06233C229C490020FEF7C5F80723BF
:102B90003C229A490020FEF7BFF807200090062348
:102BA0007F223C210020FDF724FF01BD80B50020DD
:102BB000FDF76DFF0123022291490020FEF7ACF8DA
:102BC00001235C22804881780020FEF71CF9022353
:102BD00002228C490020FEF79FF8032302228A4933
:102BE0000020FEF799F80623022288490020FEF70C
:102BF00093F80723022286490020FEF78DF83F2034
:102C000000907F232F2200210020FDF789FF002361
:102C1000282280490020FEF77FF800236D2266A15C
:102C20000020FEF779F807237F2200210020FEF71D
:102C3000F2F90020FDF7C4FE01BD80B50020FDF7CC
:102C400026FF012302226E490020FEF765F80123CA
:102C50005C225D4881780020FEF7D5F8022302222D
:102C60006D490020FEF758F8032302226B4900202B
:102C7000FEF752F80423022269490020FEF74CF8BF
:102C80000523022267490020FEF746F807230222A7
:102C900065490020FEF740F83F2000907F2337224F
:102CA00000210020FDF73CFF002328225949002085
:102CB000FEF732F800236D223FA10020FEF72CF82A
:102CC00007237F2200210020FEF7A5F90020FDF751
:102CD00077FE01BD80B500F05EFE00F0E2FB0F2044
:102CE00000F090FD3848007B2A2805D04F4800218D
:102CF00001604F4800210160F82000F0ECF800204E
:102D0000FDF7C5FE01BD80B52F48007B2A2840D1C4
:102D10004848007834490978884201D000F03DF8ED
:102D200031480078002807D14348007804281EDB8A
:102D30004148002101701AE02B480078052807DA85
:102D40003D480078032812DB3B48002101700EE06B
:102D5000254800780A2807DA37480078022806DB79
:102D600035480021017002E0334800210170012044
:102D7000314991F900108840C0B200F04BFD2E4857
:102D80000078401C2C4908702A48174909780170BE
:102D900002E0012000F03EFD01BD80B52648002183
:102DA00001700F200849097B2A2900D00320C0B2F6
:102DB00000F028FD01BD0000312F3100004100204E
:102DC0000048E80100127A003448002040420F0019
:102DD0004C48002018502000DC532000E84600201A
:102DE0000000C8424447002082480020F1410020F2
:102DF0001B2B2000C83E2000E8532000F453200085
:102E00008C52200098502000AC5020009C52200092
:102E1000AC52200000542000C0502000D4502000AC
:102E2000E8502000BC522000FC5020001C0001444F
:102E300020000144844800208348002080B5DFF84A
:102E40007013C0B20860F021DFF86803FFF704F9DF
:102E50000422F021DFF85C03FFF7E5FB0821DFF82F
:102E60005803FFF7F9F804220821DFF84C03FFF7B5
:102E7000DAFBF021DFF83C03FFF7BEF80821DFF8AA
:102E80003803FFF7B9F8DFF828030068012821D1DB
:102E90000FF2A912F021DFF81C0300F095FD0FF2EC
:102EA00035220821DFF8100300F08EFD0422F02106
:102EB000DFF80003FFF769F804220821DFF8F802C1
:102EC000FFF763F8DFF8F402006830F00800DFF87D
:102ED000EC12086001BD38B50400DFF8D4020068C8
:102EE000012816D10025FFF7F1F9DFF8D41209689F
:102EF0000D00DFF8CC120968E4B2A143DFF8C0226C
:102F00001160C0B2002801D1FFF7D6F92800C0B285
:102F100067E0F021DFF89C02FFF795F8C443082131
:102F2000DFF89402FFF78FF8C043E10610D50024C4
:102F300008E01021DFF87C02FFF785F8002800D1B7
:102F40000024641CA4B2B4F5FA7FF2DB102048E040
:102F5000A1060FD5002407E020219648FFF773F85B
:102F6000002800D10024641CA4B2B4F5FA7FF3DB7E
:102F7000202036E061060FD5002407E040218D486F
:102F8000FFF761F8002800D10024641CA4B2B4F556
:102F9000FA7FF3DB402024E021060FD5002407E070
:102FA00080218448FFF74FF8002800D10024641CDA
:102FB000A4B2B4F5FA7FF3DB802012E000070FD54E
:102FC000002407E008217C48FFF73DF8002800D1E5
:102FD0000024641CA4B2B4F5FA7FF3DB082000E0FF
:102FE000002032BD80B5F820FFF775FFC10601D57E
:102FF000032010E0810601D504200CE0410601D534
:10300000012008E0010601D5022004E0000701D5F7
:10301000072000E0002002BD10B5040064480068ED
:10302000012809D114F0F0016248FEF7DCFF14F02A
:1030300008016148FEF7D7FF10BD000010B500F091
:10304000B0F801215B48FEF7E1FF10F0F004FFF754
:103050003DF95B4909682143594A11605A49096899
:103060002143594A1160C0B2002801D1FFF724F969
:103070005548006810F0F0014E48FEF7BDFFE0062D
:1030800006D550484068002802D04E484068804726
:10309000A00606D54B488068002802D049488068C1
:1030A0008047600606D54748C068002802D04548DA
:1030B000C0688047200606D542480069002802D033
:1030C0004048006980470FF2710000F07FF800F07F
:1030D00056F810BD10B500F064F801213648FEF72F
:1030E00095FF10F00804FFF7F1F83549096821430E
:1030F000334A1160344909682143334A1160C0B230
:10310000002801D1FFF7D8F82F48006810F0080117
:103110002948FEF771FF200706D52A4800680028D5
:1031200002D02848006880470FF20D0000F04EF8EA
:1031300000F025F810BD000080B500F032F82248FC
:10314000006810F0F0011B48FEF76AFF1E48006897
:1031500010F008011848FEF763FF1B48006810F0E4
:10316000F0011448FEF73FFF1748006810F008010F
:103170001148FEF738FF14480021016001BD80B5F9
:1031800000F00FF80D4800688008800050F0010042
:103190000A4908600948006850F00C0007490860B7
:1031A00001BD0648006830F0080004490860704717
:1031B0006048002000B00D4000900D4000500D40D0
:1031C00058480020204800205C48002080B50100BD
:1031D0002220FFF785F82220FFF7B7F801BD80B560
:1031E000FFF76AF801BD80B5FFF770F801BD340044
:1031F0000B320270AE4A12685279002A02D048F6A9
:10320000610201E048F64102427092B2120A8270F5
:10321000A84A1278C270A64A126852888280C18079
:10322000A3490968098801810A20704770B50C001C
:1032300015002A00D2B2010089B29F48FFF7D8FFDB
:10324000002107E0C0B2C9B20A189B4BC9B20E5D9B
:10325000D654491CC9B2EDB2A942F3D32818C0B262
:1032600070BD10B5954C00F01CFAFFF7B8FF0121B6
:10327000200000F0EFF9207810F07F002070207817
:10328000052817D121788E4800F0E4F96078C0F362
:10329000401010F001008B4908738B4840780006FD
:1032A00043D5E0788349097888423ED1814801219D
:1032B00041703AE094F900000B3882498871217816
:1032C0007F4800F0C7F96078C0F3401010F00100AB
:1032D0007C4908737B48218941807A487B49816019
:1032E000784890F90600774989684018754990F93F
:1032F00000204A734078000611D572480078E178C2
:1033000088420CD0607810F0DF00412803D16D486E
:103310000121817306E06B480021817302E0694856
:1033200000218173E07867490870FFF75CFF00F0C7
:10333000C3F910BD10B5040000F0CEF8012801D18A
:10334000012021E0FFF74FFF594804605D4800214C
:1033500081605848012181705648002141605448DD
:103360000068007900F0F0F851480068008800F02B
:10337000F2F84F480068408800F0F7F8544800F031
:10338000A6F9FFF72CFF002010BD70B504000D005A
:10339000160048488078002801D100F074F9F6B290
:1033A000672E00DB672600F0A3F900F07AF93200FF
:1033B000D2B22900200080B2FFF738FF0100C9B265
:1033C0003D4800F030F900F077F900F04DF90028A1
:1033D00000D00124364800684079002814D03548D0
:1033E00000214170FEF7A1FE3A49B0FBF1F04FF425
:1033F00048714843FEF7E8FE2E484078002801D087
:10340000002400E0012400E000242A4880780028FD
:1034100001D100F03FF9E4B2002C04D12548007836
:10342000401C244908702000C0B270BD2548807B34
:10343000704770B504000E001500FFF7D4FE214858
:1034400090F906003100C9B200B209B2884202DA2E
:103450001C488679FFE7002006E0C0B21949896858
:10346000415C2170641C401CC0B2F6B2B042F4D37F
:10347000002D07D000F065F8124991F90D10C0B287
:10348000081A28800F4800218173FFF7A8FE30003A
:10349000C0B270BD80B507480121817000F0F3F81B
:1034A00001BD80B503480021817000F0F3F801BD33
:1034B000544800204448002074460020F445002071
:1034C000F5450020E0410020F8450020FE450020A1
:1034D0006332200040420F0080B5AA4801210160FC
:1034E000A948006850F06000A7490860A7480D216E
:1034F0000160A74815210160A6485A210160A6482D
:103500000921016004200B210160A4480021016011
:10351000A34808210160A34801210160A248007866
:10352000012801D100F0EAF800212A20FEF7F2FE7E
:103530000FF20D212A20FEF7D3FE00F0BDF8002087
:1035400002BD9A4800787047C0B2052148432C3824
:1035500097490860704780B2C1B2964A116080B244
:10356000000A80B294490860704780B2C1B2934AA1
:10357000116080B2000A80B2914908607047C0B201
:10358000002816D001281AD002281AD003281AD0F1
:1035900004281AD005281AD00A281AD00B281AD0C5
:1035A0000C281AD00D281AD00E281AD00F281AD09D
:1035B0001BE0FF208349C0B2086000207047D5207F
:1035C000F8E7B620F6E7A120F4E77220F2E7422000
:1035D000F0E7E520EEE7D020ECE7BC20EAE7A62004
:1035E000E8E79C20E6E78720E4E70120E6E7C0B2B1
:1035F00001000029012903D86B490870002000E070
:1036000001207047C0B2002806D16F480021016038
:1036100066484521017005E06B480421016063485C
:103620004F210170704710B4684AEE231360684A56
:10363000126832F00202664B1A60002204E0D2B235
:10364000135C644C2360521CD2B2C9B28A42F6D3D6
:1036500010BC704704E05F4A12680270401C491EAB
:10366000C9B20029F7D170475848E921016058488C
:1036700000688007FBD55648006830F002005449C6
:103680000860002070475148ED2101604F48E32158
:10369000016070474D48EF2101604C48ED21016009
:1036A000704780B54C48006830F040004A490860D7
:1036B0002A20FEF77EFE01BD80B54748006850F025
:1036C0004000454908602A20FEF73FFE01BD10B5C5
:1036D0000400FEF7FBFD10F0010090F00100C0B205
:1036E0003E490C6080B2002801D0FEF7E5FD10BD18
:1036F0003B48006810F0220FFAD1704780B5394876
:10370000006850F00400374908603748006810F03E
:103710000400354908603548002101600120FFF7A9
:1037200071FF334811210160324880210160324825
:103730001021016031488121016001BD00000000BD
:1037400010B5FEF7C3FD10F0010090F00104E4B2E3
:103750002B48006840060FD520480068002802D09A
:103760001E48006880472A20FEF757FE244800685C
:1037700030F0400022490860A4B2002C01D0FEF7CE
:103780009BFD10BDA8200D402486084000860840FF
:10379000C8860840B0860840E88708402886084068
:1037A000E4860840B886084081480020F0410020A7
:1037B0003C860840D0850840D4850840C88508402C
:1037C000CC8508404086084010C00D40388808402D
:1037D00030880840288808408C86084064480020CB
:1037E0004C86084000C40D4020C40D40E8400D4008
:1037F000AC8708401C000144B08708402000014409
:103800003488084080B500220100C9B20A48FEF79A
:103810001EFC01BD10B504002100C9B20648FEF728
:1038200012FCE4B234EA00000200D2B22100C9B2B4
:103830000148FEF70CFC10BD00B00D4010B5FF2391
:1038400013EAD0541DBF13EAD1529C429A4239E088
:10385000A41ADA0780EA0103134042EA012142EA8E
:103860000020421A3CBF641E01EB4202090AB2FB6F
:10387000F1FE01FB1E221202B2FBF1F001FB10224D
:103880006EF30F201202B2FBF1FE4EEA00207F34ED
:1038900006DDFE2C24DA53EA500050EBC45010BD74
:1038A000D4F1020401FB1E2240F08071192C1DDCB2
:1038B00021FA04F0C4F12004A140114371F1004247
:1038C000584110BD9C421ABF03EAD1529A420FE000
:1038D00080EA010E0EF00043400004D0490016D1EA
:1038E00043F0FF4010BD490008BFD343180010BD8E
:1038F0009C4205D1D21AF7D001F00041484010BDDA
:103900004A0212BF0846484000F0004010BD4AB9C4
:103910000902B1FA81F2914044B1A418C00140F00B
:1039200000409EE7C90141F0004152420002B0FA56
:1039300080F4A040141B94E7002200F075BA350013
:1039400010B504001E48A4B204603020FEF731FD1B
:1039500000F08DFAA4B2201800F098FA10BD38B526
:103960000400FEF7B3FC05000FF2350000F076FA14
:103970003020FEF71EFD13480460EDB2002D01D18A
:10398000FEF79AFC31BD80B53020FEF746FD3020B1
:10399000FEF7DBFC01BD80B53020FEF70AFD01BD5E
:1039A00080B500F064FA06490968081800F06EFA5C
:1039B00004480068002802D002480068804701BD22
:1039C000684800206C480020F8B504000D0016007F
:1039D000FEF77CFC07003000002860D02000DFF8F4
:1039E000181488420CD0DFF8141488421CD0DFF879
:1039F000101488422CD0DFF80C1488423CD04EE0E2
:103A0000DFF804040068002805D10FF21D11DFF86B
:103A1000E803FEF709FBDFF8F0030068EDB2284386
:103A2000DFF8E41308603AE0DFF8E00300680028FC
:103A300005D10FF2A911DFF8C403FEF7F5FADFF89C
:103A4000CC030068EDB22843DFF8C013086026E01D
:103A5000DFF8BC030068002805D10FF23521DFF83C
:103A6000A003FEF7E1FADFF8A8030068EDB22843EF
:103A7000DFF89C13086012E0DFF898030068002864
:103A800005D10FF2C121DFF87C03FEF7CDFADFF894
:103A900084030068EDB22843DFF878130860002043
:103AA000009002E00098401C00900098082830D256
:103AB0000120009988402900C9B20142F2D02000BB
:103AC000DFF8341388420CD0DFF8301388420ED070
:103AD000DFF82C13884210D0DFF82813884212D068
:103AE000E0E70098DFF8301341F82060DAE700984B
:103AF000DFF8281341F82060D4E70098DFF820139E
:103B000041F82060CEE70098DFF8181341F82060F4
:103B1000C8E72900C9B22000FEF782FAFFB2002FE1
:103B200001D1FEF7C9FBF1BD38B50121B248FEF75E
:103B30006DFA0400B448006810EA0405E80706D5E9
:103B4000B548006880470121AB48FEF769FAA8072D
:103B500006D5B148406880470221A748FEF760FAC1
:103B6000680706D5AC48806880470421A248FEF764
:103B700057FA280706D5A848C068804708219E48FC
:103B8000FEF74EFAE80606D5A348006980471021E3
:103B90009948FEF745FAA80606D59F484069804730
:103BA00020219548FEF73CFA680606D59A488069B8
:103BB000804740219048FEF733FA280606D59648FC
:103BC000C069804780218C48FEF72AFA34EA050153
:103BD000C9B28948FEF724FA31BD000038B5012189
:103BE0008648FEF713FA04008848006810EA0405C6
:103BF000E80706D589480068804701217F48FEF71D
:103C00000FFAA80706D585484068804702217B48FF
:103C1000FEF706FA680706D58048806880470421C9
:103C20007648FEF7FDF9280706D57C48C06880472E
:103C300008217248FEF7F4F9E80606D577480069CE
:103C4000804710216D48FEF7EBF9A80606D57348AA
:103C50004069804720216948FEF7E2F9680606D5E9
:103C60006E488069804740216448FEF7D9F92806EC
:103C700006D56A48C069804780216048FEF7D0F9C0
:103C800034EA0501C9B25D48FEF7CAF931BD00004A
:103C900038B501215A48FEF7B9F904005C480068BC
:103CA00010EA0405E80706D55D4800688047012151
:103CB0005348FEF7B5F9A80706D55948406880472C
:103CC00002214F48FEF7ACF9680706D554488068D2
:103CD000804704214A48FEF7A3F9280706D5504833
:103CE000C068804708214648FEF79AF9E80606D5DD
:103CF0004B480069804710214148FEF791F9A8061A
:103D000006D547484069804720213D48FEF788F99D
:103D1000680606D542488069804740213848FEF74A
:103D20007FF9280606D53E48C0698047802134487F
:103D3000FEF776F934EA0501C9B23148FEF770F9A9
:103D400031BD000038B501212E48FEF75FF90400AF
:103D50003048006810EA0405E80706D531480068D5
:103D6000804701212748FEF75BF9A80706D52D48B3
:103D70004068804702212348FEF752F9680706D5BC
:103D800028488068804704211E48FEF749F9280723
:103D900006D52448C068804708211A48FEF740F934
:103DA000E80606D51F480069804710211548FEF730
:103DB00037F9A80606D51B484069804720211148DD
:103DC000FEF72EF9680606D516488069804740211F
:103DD0000C48FEF725F9280606D51248C069804729
:103DE00080210848FEF71CF934EA0501C9B20548EC
:103DF000FEF716F931BD000000900D4000A00D4007
:103E000000B00D4000C00D407048002074480020F4
:103E1000784800207C480020A0470020C0470020B0
:103E2000E04700200048002000B500BF1300964680
:103E30009446103928BFA0E80C50FAD85FEA417CBC
:103E400028BF0CC048BF40F8042BC90728BF20F882
:103E5000022B48BF00F8012B00BD360080B50100E1
:103E60003020FEF73DFA3020FEF76FFA01BD114811
:103E700000681149096850EA01201049096850EAB0
:103E800001400F49096850EA016070470D4909680F
:103E9000C907FBD5010E0A4A1160C0F30741074A62
:103EA0001160C0F30721044A1160C0B201490860E3
:103EB0007047000040500D4044500D4048500D40A8
:103EC0004C500D4050500D4000000000000000001C
:103ED0000000000000000000C0C0C0C0C0C0C0C0E2
:103EE000C0C0C0C0C0C00000000000000000000052
:103EF00000000000000000000000000000000000C2
:103F000000000000000000000000000000000000B1
:103F1000000000000000000000000000000000C0E1
:103F20000000C000C0404080000000000000000011
:103F30000000C0404040404040C000000000000081
:103F40000000000000000000000000000000000071
:103F50000000000000000000FFFFFFFFFFFFFFFF69
:103F6000FFFFFFFFFFFF00000000000000787E7EE3
:103F70007E7E3E0000000000000000000000000007
:103F80000000000000000000000000000000000031
:103F9000000000000000000000000000000000E73A
:103FA0002828A7A02F21E100000000000000000049
:103FB00000003F2026292926203F000000000000A5
:103FC00000000000000000000000000000000000F1
:103FD0000000000000000000FFFFFFFFFFFFFFFFE9
:103FE000FFFFFFFFFFFFFEFEFE0600E0FEFEFEFEFF
:103FF000FE0600E0FEFEFEFEFEFEFEFEFEFEFEFEF5
:104000000000C040408000008040800000008040F0
:104010004000C000804000E02020A0A02020E01F41
:104020001013141413101FE02020A0A02020E00083
:10403000C040404000C0800000C04040C04040C080
:1040400040404000C0404080F0F0F0F0F0F0F0F070
:10405000F0F0F0F0F0F0F0F0FFFFFFFFFFFFFFFFE8
:10406000FFFFFF8F818080000080FCFFFFFFFF1FAC
:10407000008080808080F9FFFFFFFFFFFFFFFFFFD0
:10408000F8E0CF090906000E0302030E000304083E
:1040900008000F030408001F1013141413101FE06E
:1040A0002020A0A02020E01F1013141413101F00C4
:1040B0000F0A0A08000F0003040F00000F00000F92
:1040C0000A0A08000F02020D000107070F1F7FFFF9
:1040D000FFFFFFFFFFFFFFFFFFFFFFFFFFFFFFFFF0
:1040E000FFFFFFFFFF7F0300F0FFFFFFFFFF070061
:1040F000F0FFFFFFFFFFFFFFFFFFFFFFFFFFFFFFDF
:10410000FFFFFF00000000000000000000000000B2
:10411000000000000000000000C040408000805F00
:10412000509314D413101FC000C0800000C00000C2
:10413000000000000000000000000000000000007F
:10414000000000000000000000000000000000016E
:10415000071F3F7F7F7F7F3F1F0F0F070F0F1F7FBF
:10416000FFFFFFFFCF8000000303030303000000F5
:10417000030383FFFFFFFFFF7F7F3F3F1F1F0F0FE3
:10418000070707000000000000000000000000001A
:104190000000000000000000000F080807000708EA
:1041A0000807000708070807000F0003040F0000B6
:1041B00000000000000000000000000000000000FF
:1041C00000000000000000000000000000000000EF
:1041D00000000000000000000000000000000000DF
:1041E00001071F7FFFFFFFFFFEFEFEFEFEFEFEFE3D
:1041F000FEFE7F1F0703010000000000000000001A
:1042000000000000000000000000000000000000AE
:10421000000000000000000000000000000000009E
:10422000000000000000000000000000000000008E
:10423000000000000000000000000000000000007E
:10424000000000000000000000000000000000006E
:10425000000000000000000000000000000000005E
:104260000000000001030F1F1F3F7F7FFFFFFFFFC4
:10427000FFFFE00000000000000000000000000060
:10428000000000000000000000000000000000002E
:10429000000000000000000000000000000000001E
:1042A000000000000000000000000000000000000E
:1042B00000000000000000000000000000000000FE
:1042C000000000000000000000800000000000006E
:1042D000EC52200000000000000000000000000080
:1042E0000000000000000000000000000E1620008A
:1042F00010512000000000003841002000000000A4
:104300009B4A20000B00000000000000B2172000B4
:10431000245120000000000038410020000000006F
:104320009B4A20000C00000000000000AE19200095
:10433000385120000000000038410020000000003B
:104340009B4A20000D00000000000000EE3120001C
:104350004C51200000000000384100200000000007
:104360009B4A20000E000000000000003E392000A3
:1043700060512000000000003841002000000000D3
:104380009B4A20000F000000000000005A3E200061
:10439000745120000000000038410020000000009F
:1043A0009B4A20001000000000000000824E200008
:1043B000885120000000000038410020000000006B
:1043C0009B4A200011000000000000009E4E2000CB
:1043D0009C51200000000000384100200000000037
:1043E0009B4A20001200000000000000D64E200072
:1043F000B051200000000000384100200000000003
:104400009B4A20001300000000000000D054200050
:10441000C4512000000000003841002000000000CE
:104420009B4A20001400000000000000D45420002B
:10443000D85120000000000038410020000000009A
:104440009B4A20001500000000000000D854200006
:10445000EC51200000000000384100200000000066
:104460009B4A20001600000000000000DC542000E1
:104470000052200000000000384100200000000031
:104480009B4A20001700000000000000E0542000BC
:1044900014522000000000003841002000000000FD
:1044A0009B4A20001800000000000000E454200097
:1044B00028522000000000003841002000000000C9
:1044C0009B4A20001900000000000000E854200072
:1044D0003C52200000000000384100200000000095
:1044E0009B4A20001A00000000005F000000070047
:1044F0000700147F147F14242A7F2A1223130864D0
:104500006236495522500005030000001C2241007C
:104510000041221C00082A1C2A0808083E0808003E
:1045200050300000080808080800606000002010F3
:104530000804023E5149453E00427F40004261511D
:1045400049462141454B311814127F1027454545F6
:10455000393C4A4949300171090503364949493610
:10456000064949291E003636000000563600000074
:1045700008142241141414141441221408000201D6
:10458000510906324979413E7E1111117E7F494918
:1045900049363E414141227F4141221C7F494949E0
:1045A000417F090901013E414151327F0808087FDE
:1045B00000417F41002040413F017F081422417F9C
:1045C000404040407F0204027F7F0408107F3E414C
:1045D00041413E7F090909063E4151215E7F09198B
:1045E0002946464949493101017F01013F40404088
:1045F0003F1F2040201F7F2018207F631408146372
:104600000304780403615149454300007F4141029E
:104610000408102041417F000004020102044040D0
:10462000404040000102040020545454787F484424
:1046300044383844444420384444487F385454541F
:1046400018087E090102081454543C7F08040478B9
:1046500000447D40002040443D00007F102844007D
:10466000417F40007C041804787C080404783844B6
:104670004444387C14141408081414187C7C08046E
:1046800004084854545420043F4440203C404020F7
:104690007C1C2040201C3C4030403C4428102844D6
:1046A0000C5050503C4464544C44000836410000C7
:1046B000007F00000041360800003E1C080000009A
:1046C0000080000000000000CC522000000000002C
:1046D00000000000000000000000000000000000DA
:1046E000000000000E1620000C5420000000000006
:1046F0001C41002000000000414A20002A00000068
:1047000000000000B2172000DC5220000000000072
:104710001C41002000000000414A20000100000070
:1047200000800000EC542000EC5420000000000049
:104730000000000000000000000000000000000079
:1047400000800000EC542000EC5420000000000029
:104750000000000000000000000000000000000059
:1047600000800000EC542000EC5420000000000009
:104770000000000000000000000000000000000039
:1047800000810000EC5420006C5420000000000068
:104790000000000000000000000000000000000019
:1047A00000800000000000005052200000000000C7
:1047B00000000000000000000000000000000000F9
:1047C000000000000E1620007454200000000000BD
:1047D0007041002000000000C54A200000000000D9
:1047E00000000000B21720007C54200000000000F0
:1047F0007041002000000000C54A200001000000B8
:1048000000000000AE1920008454200000000000C9
:104810007041002000000000C54A20000200000096
:1048200000000000EE3120008C5420000000000049
:104830007041002000000000C54A20000300000075
:10484000000000003E3920009454200000000000C9
:104850007041002000000000C54A20000400000054
:10486000000000005A3E20009C5420000000000080
:104870007041002000000000C54A20000500000033
:1048800000800000000000005052200000000000E6
:104890000000000000000000000000000000000018
:1048A000000000000E162000305420000000000020
:1048B0007041002000000000C54A20000A000000EE
:1048C00000000000B2172000A454200000000000E7
:1048D0007041002000000000C54A20000B000000CD
:1048E00000000000AE192000AC54200000000000C1
:1048F0007041002000000000C54A20000C000000AC
:1049000000000000EE312000B45420000000000040
:104910007041002000000000C54A20000D0000008A
:10492000000000003E392000BC54200000000000C0
:104930007041002000000000C54A20000E00000069
:10494000000000003E392000C45420000000000098
:104950007041002000000000C54A20000F00000048
:1049600000800000EC542000EC5420000000000007
:104970000000000000000000000000000000000037
:1049800000800000EC542000EC54200000000000E7
:104990000000000000000000000000000000000017
:1049A00000800000EC542000AC5320000000000008
:1049B00000000000000000000000000000000000F7
:1049C00000800000EC542000EC54200000000000A7
:1049D00000000000000000000000000000000000D7
:1049E00000800000EC542000EC5420000000000087
:1049F00000000000000000000000000000000000B7
:104A0000000000000E162000BC5320000000000033
:104A10000000000000000000014B2000000000002A
:104A200000C00000EC542000CC5320000000000027
:104A30000000000000000000000000000000000076
:104A400080B52849006808732648007B2A280AD1C7
:104A50000020FEF7CCFD2448244901602448254964
:104A60000160072009E00120FEF7C1FD1E48224930
:104A700001601F482149016007201D4908751C4934
:104A800009692F300870002002BD80B51549006803
:104A90000873FDF740FF002002BD124900688870CE
:104AA0000020704780B500680E4908700D480078F6
:104AB000012805D10B48007B2A2801D1FDF72BFFE7
:104AC000002002BD07490068C870002070470549F2
:104AD0000068486000207047024900688860002034
:104AE0007047000034480020384100200C4D200061
:104AF00054410020A04720006C4D20008048200039
:104B000080B5FDF753FE02BD0080000000000000EC
:104B100078522000000000000000000000000000AB
:104B20000000000000000000000000000E16200041
:104B30005C53200000000000A8410020000000009D
:104B4000D94A20000100000000000000B217200038
:104B50006C53200000000000A8410020000000006D
:104B6000D94A20000A00000000000000AE19200011
:104B70007C53200000000000A8410020000000003D
:104B8000D94A20001400000000000000EE3120008F
:104B90008C53200000000000A8410020000000000D
:104BA000D94A200032000000000000003E392000F9
:104BB0009C53200000000000A841002000000000DD
:104BC000D94A2000640000000000000018ED00E059
:104BD0001CED00E020ED00E000E400E004E400E073
:104BE00008E400E00CE400E010E400E014E400E07D
:104BF00018E400E01CE400E020E400E024E400E02D
:104C000028E400E02CE400E030E400E034E400E0DC
:104C100038E400E03CE400E040E400E044E400E08C
:104C200048E400E04CE400E050E400E054E400E03C
:104C300058E400E05CE400E060E400E064E400E0EC
:104C400068E400E06CE400E070E400E074E400E09C
:104C500078E400E07CE400E080E400E084E400E04C
:104C600088E400E08CE400E090E400E000800000D4
:104C7000000000006452200000000000000000005E
:104C80000000000000000000000000000000000024
:104C90000E1620001C532000000000008C41002054
:104CA00000000000CF4A2000E803000000000000E0
:104CB000B21720002C532000000000008C4100207F
:104CC00000000000CF4A2000102700000000000074
:104CD000AE1920003C532000000000008C41002051
:104CE00000000000CF4A2000A08601000000000064
:104CF000EE3120004C532000000000008C410020C9
:104D000000000000CF4A200040420F000080000059
:104D100000000000FC522000000000000000000025
:104D20000000000000000000000000000000000083
:104D30000E162000185420000000000054410020EE
:104D400000000000A54A2000000000000000000054
:104D5000B2172000245420000000000000000000D2
:104D600000000000A54A20000100000000800000B3
:104D700000000000FC5220000000000000000000C5
:104D80000000000000000000000000000000000023
:104D90000E1620001854200000000000544100208E
:104DA00000000000A54A20000000000000000000F4
:104DB000B21720002454200000000000C44100204D
:104DC00000000000A54A2000010000000080000053
:104DD000000000000C532000000000000000000054
:104DE00000000000000000000000000000000000C3
:104DF0000E1620003C5420000000000000000000BF
:104E0000000000008B4A20000100000000000000AC
:104E1000B2172000485420000000000000000000ED
:104E2000000000008B4A20000000000080B50B4805
:104E3000FF2101600A480B490A680B4B9A4203D1D3
:104E40000200501E002AF7D10848006850F0010007
:104E50000649086000F00FF801BD0000B4200D40C5
:104E600080841E00003000204812F0A598200D40DC
:104E7000FEE7FEE7FEE7C046C046C046C04600F07B
:104E800001F8370000F009F8002801D000F008F818
:104E90000020FDF71DFC00F017F8012070473800D6
:104EA00010B5074979441831064C7C44163404E0A7
:104EB0000A68081D511888470146A142F8D110BD63
:104EC0002C0000005400000000F000B807463846EF
:104ED00000F002F8FBE7390080B5C046C046024A40
:104EE00011001820ABBEFBE726000200B3C6FFFF8F
:104EF000000100000040002094060000F441002062
:104F00000000000087C5FFFFF4000000E40500007A
:104F1000004100200000000080400D4084400D4012
:104F200088400D408C400D4090400D4094400D4015
:104F300098400D409C400D40A0400D40A4400D40C5
:104F4000A8400D40AC400D40B0400D40B4400D4075
:104F5000B8400D40BC400D40C0400D40C4400D4025
:104F6000C8400D40CC400D40D0400D40D4400D40D5
:104F7000D8400D40DC400D40E0400D40E4400D4085
:104F8000E8400D40EC400D40F0400D40F4400D4035
:104F9000F8400D40FC400D4000400D4004400D40E5
:104FA00008400D400C400D4010400D4014400D4095
:104FB00018400D401C400D4020400D4024400D4045
:104FC00028400D402C400D4030400D4034400D40F5
:104FD00038400D403C400D4040400D4044400D40A5
:104FE00048400D404C400D4050400D4054400D4055
:104FF00058400D405C400D4060400D4064400D4005
:1050000068400D406C400D4070400D4074400D40B4
:1050100078400D407C400D404661696C65642074A9
:105020006F20696E697469616C697A6500000000BF
:1050300008200D4018200D4028200D4038200D403C
:1050400048200D40A8200D4000E100E004E100E010
:1050500008E100E00CE100E010E100E080E100E0A8
:1050600084E100E088E100E08CE100E090E100E014
:1050700080E200E084E200E088E200E08CE200E010
:1050800090E200E040A1C0A6A22FF800278116AC54
:1050900000AFB0100000000053656E7420706B7498
:1050A000732E2020203A20300000000050726F67DD
:1050B000726573735B255D20203A2030000000008C
:1050C0005045525B255D202020202020203A2030B2
:1050D00000000000476F6F6420706B74732E2020F7
:1050E000203A2030000000004C6F737420706B7405
:1050F000732E2020203A203000000000312053453C
:105100004C45435420746F20726573657400000031
:105110002043682E203131202832343035204D484C
:105120007A2900002043682E203132202832343181
:1051300030204D487A2900002043682E203133204A
:105140002832343135204D487A2900002043682E1A
:10515000203134202832343230204D487A29000062
:105160002043682E203135202832343235204D48F6
:105170007A2900002043682E20313620283234332B
:1051800030204D487A2900002043682E20313720F6
:105190002832343335204D487A2900002043682EC8
:1051A000203138202832343430204D487A2900000C
:1051B0002043682E203139202832343435204D48A0
:1051C0007A29000043682E203230202832343530CE
:1051D000204D487A2900000043682E2032312028D3
:1051E00032343535204D487A2900000043682E209E
:1051F0003232202832343630204D487A29000000DF
:1052000043682E203233202832343635204D487AF8
:105210002900000043682E203234202832343730F1
:10522000204D487A2900000043682E20323520287E
:1052300032343735204D487A2900000043682E204B
:105240003236202832343830204D487A2900000088
:105250002053656C65637420545820706F776572B5
:10526000000000002053656C656374204275727302
:10527000742053697A6500002053656C656374205F
:105280005061636B65742052617465004368616EA0
:105290006E656C2020202020203A2000312055739C
:1052A000652053454C45435420746F00202073748F
:1052B0006172742F73746F70205458004176672E9A
:1052C0002052535349202020203A20002053656C5F
:1052D000656374204D6F64756C650000434332351F
:1052E00033382D434332353931454D002053656CF9
:1052F000656374204368616E6E656C002053656C55
:10530000656374204D6F6465000000002053656C78
:10531000656374204761696E000000002020203121
:10532000303030207061636B657473002020313041
:10533000303030207061636B657473002031303021
:10534000303030207061636B657473003130303001
:10535000303030207061636B657473002020203121
:10536000207061636B65742F730000002020313062
:10537000207061636B6574732F73000020203230DE
:10538000207061636B6574732F73000020203530CB
:10539000207061636B6574732F73000020313030AF
:1053A000207061636B6574732F73000020202020D0
:1053B000202054582049646C650000005573652016
:1053C00053454C45435420746F00000020207374F3
:1053D0006172742F73746F70205458004261736946
:1053E0006352462100000000202043433235333809
:1053F0000000000020504552205445535400000046
:105400005045522054657374000000004343323508
:105410003338454D000000005472616E736D69743D
:1054200074657200526563656976657200000000FC
:1054300031392E352064426D0000000048696768EC
:10544000206761696E0000004C6F77206761696EAC
:1054500000000000504552205465737400000000A5
:105460004D61696E204D656E7500000076312E30FD
:105470002E3020002020372064426D002020332071
:1054800064426D002020302064426D00202D3320C6
:1054900064426D00202D392064426D002D3135208D
:1054A00064426D0031382064426D00003136206462
:1054B000426D000031342064426D000031322064BE
:1054C000426D000031302064426D0000B0100000D9
:1054D0003130000031310000313200003133000042
:1054E000313400003135000031360000000000008A
:1054F000C0462000000000000000000054542000BE
:10550000B21720000701010000000000C84220007F
:10551000000000000000000054542000E854200067
:1055200011010100000000000C4D20001C41002072
:105530000000000054542000B217200003010100B5
:1055400000000000A04720003841002000000000BB
:10555000545420005A3E20000701010000000000C2
:105560006C4C2000544100200000000054542000E6
:10557000EE3120000501010000000000084B200072
:105580007041002000000000545420003E392000EB
:105590000603030000000000604920008C41002049
:1055A00000000000545420000E1620000705FF00E4
:1055B00000000000CC4D2000384100200000000019
:1055C00054542000B2172000030101000000000025
:1055D000FF000000000000000000000000000000CC
:0455E0004908000076
:020000040027D3
:0CFFD400FFFFFFEF000000000000200015
:0400000500204E7712
:00000001FF
